{
  "_format": "hh-sol-artifact-1",
  "contractName": "MyEpicGame",
  "sourceName": "contracts/MyEpicGame.sol",
  "abi": [
    {
      "inputs": [
        {
          "internalType": "string[]",
          "name": "characterNames",
          "type": "string[]"
        },
        {
          "internalType": "string[]",
          "name": "characterImageURIs",
          "type": "string[]"
        },
        {
          "internalType": "uint256[]",
          "name": "characterHp",
          "type": "uint256[]"
        },
        {
          "internalType": "uint256[]",
          "name": "characterAttackDmg",
          "type": "uint256[]"
        },
        {
          "internalType": "string",
          "name": "bossName",
          "type": "string"
        },
        {
          "internalType": "string",
          "name": "bossImageURI",
          "type": "string"
        },
        {
          "internalType": "uint256",
          "name": "bossHp",
          "type": "uint256"
        },
        {
          "internalType": "uint256",
          "name": "bossAttackDamage",
          "type": "uint256"
        }
      ],
      "stateMutability": "nonpayable",
      "type": "constructor"
    },
    {
      "anonymous": false,
      "inputs": [
        {
          "indexed": true,
          "internalType": "address",
          "name": "owner",
          "type": "address"
        },
        {
          "indexed": true,
          "internalType": "address",
          "name": "approved",
          "type": "address"
        },
        {
          "indexed": true,
          "internalType": "uint256",
          "name": "tokenId",
          "type": "uint256"
        }
      ],
      "name": "Approval",
      "type": "event"
    },
    {
      "anonymous": false,
      "inputs": [
        {
          "indexed": true,
          "internalType": "address",
          "name": "owner",
          "type": "address"
        },
        {
          "indexed": true,
          "internalType": "address",
          "name": "operator",
          "type": "address"
        },
        {
          "indexed": false,
          "internalType": "bool",
          "name": "approved",
          "type": "bool"
        }
      ],
      "name": "ApprovalForAll",
      "type": "event"
    },
    {
      "anonymous": false,
      "inputs": [
        {
          "indexed": false,
          "internalType": "uint256",
          "name": "newBossHp",
          "type": "uint256"
        },
        {
          "indexed": false,
          "internalType": "uint256",
          "name": "newPlayerHp",
          "type": "uint256"
        }
      ],
      "name": "AttackComplete",
      "type": "event"
    },
    {
      "anonymous": false,
      "inputs": [
        {
          "indexed": false,
          "internalType": "address",
          "name": "sender",
          "type": "address"
        },
        {
          "indexed": false,
          "internalType": "uint256",
          "name": "tokenId",
          "type": "uint256"
        },
        {
          "indexed": false,
          "internalType": "uint256",
          "name": "characterIndex",
          "type": "uint256"
        }
      ],
      "name": "CharacterNFTMinted",
      "type": "event"
    },
    {
      "anonymous": false,
      "inputs": [
        {
          "indexed": true,
          "internalType": "address",
          "name": "from",
          "type": "address"
        },
        {
          "indexed": true,
          "internalType": "address",
          "name": "to",
          "type": "address"
        },
        {
          "indexed": true,
          "internalType": "uint256",
          "name": "tokenId",
          "type": "uint256"
        }
      ],
      "name": "Transfer",
      "type": "event"
    },
    {
      "inputs": [
        {
          "internalType": "address",
          "name": "to",
          "type": "address"
        },
        {
          "internalType": "uint256",
          "name": "tokenId",
          "type": "uint256"
        }
      ],
      "name": "approve",
      "outputs": [],
      "stateMutability": "nonpayable",
      "type": "function"
    },
    {
      "inputs": [],
      "name": "attackBoss",
      "outputs": [],
      "stateMutability": "nonpayable",
      "type": "function"
    },
    {
      "inputs": [
        {
          "internalType": "address",
          "name": "owner",
          "type": "address"
        }
      ],
      "name": "balanceOf",
      "outputs": [
        {
          "internalType": "uint256",
          "name": "",
          "type": "uint256"
        }
      ],
      "stateMutability": "view",
      "type": "function"
    },
    {
      "inputs": [],
      "name": "bigBoss",
      "outputs": [
        {
          "internalType": "string",
          "name": "name",
          "type": "string"
        },
        {
          "internalType": "string",
          "name": "imageURI",
          "type": "string"
        },
        {
          "internalType": "uint256",
          "name": "hp",
          "type": "uint256"
        },
        {
          "internalType": "uint256",
          "name": "maxHp",
          "type": "uint256"
        },
        {
          "internalType": "uint256",
          "name": "attackDamage",
          "type": "uint256"
        }
      ],
      "stateMutability": "view",
      "type": "function"
    },
    {
      "inputs": [],
      "name": "checkIfUserHasNFT",
      "outputs": [
        {
          "components": [
            {
              "internalType": "uint256",
              "name": "characterIndex",
              "type": "uint256"
            },
            {
              "internalType": "string",
              "name": "name",
              "type": "string"
            },
            {
              "internalType": "string",
              "name": "imageURI",
              "type": "string"
            },
            {
              "internalType": "uint256",
              "name": "hp",
              "type": "uint256"
            },
            {
              "internalType": "uint256",
              "name": "maxHp",
              "type": "uint256"
            },
            {
              "internalType": "uint256",
              "name": "attackDamage",
              "type": "uint256"
            }
          ],
          "internalType": "struct MyEpicGame.CharacterAttributes",
          "name": "",
          "type": "tuple"
        }
      ],
      "stateMutability": "view",
      "type": "function"
    },
    {
      "inputs": [
        {
          "internalType": "uint256",
          "name": "",
          "type": "uint256"
        }
      ],
      "name": "defaultCharacters",
      "outputs": [
        {
          "internalType": "uint256",
          "name": "characterIndex",
          "type": "uint256"
        },
        {
          "internalType": "string",
          "name": "name",
          "type": "string"
        },
        {
          "internalType": "string",
          "name": "imageURI",
          "type": "string"
        },
        {
          "internalType": "uint256",
          "name": "hp",
          "type": "uint256"
        },
        {
          "internalType": "uint256",
          "name": "maxHp",
          "type": "uint256"
        },
        {
          "internalType": "uint256",
          "name": "attackDamage",
          "type": "uint256"
        }
      ],
      "stateMutability": "view",
      "type": "function"
    },
    {
      "inputs": [],
      "name": "getAllDefaultCharacters",
      "outputs": [
        {
          "components": [
            {
              "internalType": "uint256",
              "name": "characterIndex",
              "type": "uint256"
            },
            {
              "internalType": "string",
              "name": "name",
              "type": "string"
            },
            {
              "internalType": "string",
              "name": "imageURI",
              "type": "string"
            },
            {
              "internalType": "uint256",
              "name": "hp",
              "type": "uint256"
            },
            {
              "internalType": "uint256",
              "name": "maxHp",
              "type": "uint256"
            },
            {
              "internalType": "uint256",
              "name": "attackDamage",
              "type": "uint256"
            }
          ],
          "internalType": "struct MyEpicGame.CharacterAttributes[]",
          "name": "",
          "type": "tuple[]"
        }
      ],
      "stateMutability": "view",
      "type": "function"
    },
    {
      "inputs": [
        {
          "internalType": "uint256",
          "name": "tokenId",
          "type": "uint256"
        }
      ],
      "name": "getApproved",
      "outputs": [
        {
          "internalType": "address",
          "name": "",
          "type": "address"
        }
      ],
      "stateMutability": "view",
      "type": "function"
    },
    {
      "inputs": [],
      "name": "getBigBoss",
      "outputs": [
        {
          "components": [
            {
              "internalType": "string",
              "name": "name",
              "type": "string"
            },
            {
              "internalType": "string",
              "name": "imageURI",
              "type": "string"
            },
            {
              "internalType": "uint256",
              "name": "hp",
              "type": "uint256"
            },
            {
              "internalType": "uint256",
              "name": "maxHp",
              "type": "uint256"
            },
            {
              "internalType": "uint256",
              "name": "attackDamage",
              "type": "uint256"
            }
          ],
          "internalType": "struct MyEpicGame.BigBoss",
          "name": "",
          "type": "tuple"
        }
      ],
      "stateMutability": "view",
      "type": "function"
    },
    {
      "inputs": [
        {
          "internalType": "address",
          "name": "owner",
          "type": "address"
        },
        {
          "internalType": "address",
          "name": "operator",
          "type": "address"
        }
      ],
      "name": "isApprovedForAll",
      "outputs": [
        {
          "internalType": "bool",
          "name": "",
          "type": "bool"
        }
      ],
      "stateMutability": "view",
      "type": "function"
    },
    {
      "inputs": [
        {
          "internalType": "uint256",
          "name": "_characterIndex",
          "type": "uint256"
        }
      ],
      "name": "mintCharacterNFT",
      "outputs": [],
      "stateMutability": "nonpayable",
      "type": "function"
    },
    {
      "inputs": [],
      "name": "name",
      "outputs": [
        {
          "internalType": "string",
          "name": "",
          "type": "string"
        }
      ],
      "stateMutability": "view",
      "type": "function"
    },
    {
      "inputs": [
        {
          "internalType": "uint256",
          "name": "",
          "type": "uint256"
        }
      ],
      "name": "nftHolderAttributes",
      "outputs": [
        {
          "internalType": "uint256",
          "name": "characterIndex",
          "type": "uint256"
        },
        {
          "internalType": "string",
          "name": "name",
          "type": "string"
        },
        {
          "internalType": "string",
          "name": "imageURI",
          "type": "string"
        },
        {
          "internalType": "uint256",
          "name": "hp",
          "type": "uint256"
        },
        {
          "internalType": "uint256",
          "name": "maxHp",
          "type": "uint256"
        },
        {
          "internalType": "uint256",
          "name": "attackDamage",
          "type": "uint256"
        }
      ],
      "stateMutability": "view",
      "type": "function"
    },
    {
      "inputs": [
        {
          "internalType": "address",
          "name": "",
          "type": "address"
        }
      ],
      "name": "nftHolders",
      "outputs": [
        {
          "internalType": "uint256",
          "name": "",
          "type": "uint256"
        }
      ],
      "stateMutability": "view",
      "type": "function"
    },
    {
      "inputs": [
        {
          "internalType": "uint256",
          "name": "tokenId",
          "type": "uint256"
        }
      ],
      "name": "ownerOf",
      "outputs": [
        {
          "internalType": "address",
          "name": "",
          "type": "address"
        }
      ],
      "stateMutability": "view",
      "type": "function"
    },
    {
      "inputs": [
        {
          "internalType": "address",
          "name": "from",
          "type": "address"
        },
        {
          "internalType": "address",
          "name": "to",
          "type": "address"
        },
        {
          "internalType": "uint256",
          "name": "tokenId",
          "type": "uint256"
        }
      ],
      "name": "safeTransferFrom",
      "outputs": [],
      "stateMutability": "nonpayable",
      "type": "function"
    },
    {
      "inputs": [
        {
          "internalType": "address",
          "name": "from",
          "type": "address"
        },
        {
          "internalType": "address",
          "name": "to",
          "type": "address"
        },
        {
          "internalType": "uint256",
          "name": "tokenId",
          "type": "uint256"
        },
        {
          "internalType": "bytes",
          "name": "_data",
          "type": "bytes"
        }
      ],
      "name": "safeTransferFrom",
      "outputs": [],
      "stateMutability": "nonpayable",
      "type": "function"
    },
    {
      "inputs": [
        {
          "internalType": "address",
          "name": "operator",
          "type": "address"
        },
        {
          "internalType": "bool",
          "name": "approved",
          "type": "bool"
        }
      ],
      "name": "setApprovalForAll",
      "outputs": [],
      "stateMutability": "nonpayable",
      "type": "function"
    },
    {
      "inputs": [
        {
          "internalType": "bytes4",
          "name": "interfaceId",
          "type": "bytes4"
        }
      ],
      "name": "supportsInterface",
      "outputs": [
        {
          "internalType": "bool",
          "name": "",
          "type": "bool"
        }
      ],
      "stateMutability": "view",
      "type": "function"
    },
    {
      "inputs": [],
      "name": "symbol",
      "outputs": [
        {
          "internalType": "string",
          "name": "",
          "type": "string"
        }
      ],
      "stateMutability": "view",
      "type": "function"
    },
    {
      "inputs": [
        {
          "internalType": "uint256",
          "name": "_tokenId",
          "type": "uint256"
        }
      ],
      "name": "tokenURI",
      "outputs": [
        {
          "internalType": "string",
          "name": "",
          "type": "string"
        }
      ],
      "stateMutability": "view",
      "type": "function"
    },
    {
      "inputs": [
        {
          "internalType": "address",
          "name": "from",
          "type": "address"
        },
        {
          "internalType": "address",
          "name": "to",
          "type": "address"
        },
        {
          "internalType": "uint256",
          "name": "tokenId",
          "type": "uint256"
        }
      ],
      "name": "transferFrom",
      "outputs": [],
      "stateMutability": "nonpayable",
      "type": "function"
    }
  ],
  "bytecode": "0x60806040523480156200001157600080fd5b506040516200582138038062005821833981810160405281019062000037919062000a5a565b6040518060400160405280600681526020017f52656477617200000000000000000000000000000000000000000000000000008152506040518060400160405280600481526020017f52574152000000000000000000000000000000000000000000000000000000008152508160009080519060200190620000bb929190620007ed565b508060019080519060200190620000d4929190620007ed565b5050506040518060a0016040528085815260200184815260200183815260200183815260200182815250600960008201518160000190805190602001906200011e929190620007ed565b5060208201518160010190805190602001906200013d929190620007ed565b50604082015181600201556060820151816003015560808201518160040155905050620002c06040518060600160405280602a8152602001620057f7602a9139600960000180546200018f9062000de5565b80601f0160208091040260200160405190810160405280929190818152602001828054620001bd9062000de5565b80156200020e5780601f10620001e2576101008083540402835291602001916200020e565b820191906000526020600020905b815481529060010190602001808311620001f057829003601f168201915b5050505050600960020154600960010180546200022b9062000de5565b80601f0160208091040260200160405190810160405280929190818152602001828054620002599062000de5565b8015620002aa5780601f106200027e57610100808354040283529160200191620002aa565b820191906000526020600020905b8154815290600101906020018083116200028c57829003601f168201915b50505050506200070260201b62001eb51760201c565b60005b8851811015620006dc5760076040518060c001604052808381526020018b84815181106200031a577f4e487b7100000000000000000000000000000000000000000000000000000000600052603260045260246000fd5b602002602001015181526020018a848151811062000361577f4e487b7100000000000000000000000000000000000000000000000000000000600052603260045260246000fd5b60200260200101518152602001898481518110620003a8577f4e487b7100000000000000000000000000000000000000000000000000000000600052603260045260246000fd5b60200260200101518152602001898481518110620003ef577f4e487b7100000000000000000000000000000000000000000000000000000000600052603260045260246000fd5b6020026020010151815260200188848151811062000436577f4e487b7100000000000000000000000000000000000000000000000000000000600052603260045260246000fd5b6020026020010151815250908060018154018082558091505060019003906000526020600020906006020160009091909190915060008201518160000155602082015181600101908051906020019062000492929190620007ed565b506040820151816002019080519060200190620004b1929190620007ed565b50606082015181600301556080820151816004015560a0820151816005015550506000600782815481106200050f577f4e487b7100000000000000000000000000000000000000000000000000000000600052603260045260246000fd5b90600052602060002090600602016040518060c001604052908160008201548152602001600182018054620005449062000de5565b80601f0160208091040260200160405190810160405280929190818152602001828054620005729062000de5565b8015620005c35780601f106200059757610100808354040283529160200191620005c3565b820191906000526020600020905b815481529060010190602001808311620005a557829003601f168201915b50505050508152602001600282018054620005de9062000de5565b80601f01602080910402602001604051908101604052809291908181526020018280546200060c9062000de5565b80156200065d5780601f1062000631576101008083540402835291602001916200065d565b820191906000526020600020905b8154815290600101906020018083116200063f57829003601f168201915b5050505050815260200160038201548152602001600482015481526020016005820154815250509050620006c4604051806060016040528060258152602001620057d2602591398260200151836060015184604001516200070260201b62001eb51760201c565b50600181620006d4919062000d48565b9050620002c3565b50620006f46006620007ae60201b62001f571760201c565b505050505050505062000ed3565b620007a8848484846040516024016200071f949392919062000c05565b6040516020818303038152906040527f8d142cdd000000000000000000000000000000000000000000000000000000007bffffffffffffffffffffffffffffffffffffffffffffffffffffffff19166020820180517bffffffffffffffffffffffffffffffffffffffffffffffffffffffff8381831617835250505050620007c460201b60201c565b50505050565b6001816000016000828254019250508190555050565b60008151905060006a636f6e736f6c652e6c6f679050602083016000808483855afa5050505050565b828054620007fb9062000de5565b90600052602060002090601f0160209004810192826200081f57600085556200086b565b82601f106200083a57805160ff19168380011785556200086b565b828001600101855582156200086b579182015b828111156200086a5782518255916020019190600101906200084d565b5b5090506200087a91906200087e565b5090565b5b80821115620008995760008160009055506001016200087f565b5090565b6000620008b4620008ae8462000c9b565b62000c67565b9050808382526020820190508260005b85811015620008f85781518501620008dd888262000a16565b845260208401935060208301925050600181019050620008c4565b5050509392505050565b600062000919620009138462000cca565b62000c67565b905080838252602082019050828560208602820111156200093957600080fd5b60005b858110156200096d578162000952888262000a43565b8452602084019350602083019250506001810190506200093c565b5050509392505050565b60006200098e620009888462000cf9565b62000c67565b905082815260208101848484011115620009a757600080fd5b620009b484828562000daf565b509392505050565b600082601f830112620009ce57600080fd5b8151620009e08482602086016200089d565b91505092915050565b600082601f830112620009fb57600080fd5b815162000a0d84826020860162000902565b91505092915050565b600082601f83011262000a2857600080fd5b815162000a3a84826020860162000977565b91505092915050565b60008151905062000a548162000eb9565b92915050565b600080600080600080600080610100898b03121562000a7857600080fd5b600089015167ffffffffffffffff81111562000a9357600080fd5b62000aa18b828c01620009bc565b985050602089015167ffffffffffffffff81111562000abf57600080fd5b62000acd8b828c01620009bc565b975050604089015167ffffffffffffffff81111562000aeb57600080fd5b62000af98b828c01620009e9565b965050606089015167ffffffffffffffff81111562000b1757600080fd5b62000b258b828c01620009e9565b955050608089015167ffffffffffffffff81111562000b4357600080fd5b62000b518b828c0162000a16565b94505060a089015167ffffffffffffffff81111562000b6f57600080fd5b62000b7d8b828c0162000a16565b93505060c062000b908b828c0162000a43565b92505060e062000ba38b828c0162000a43565b9150509295985092959890939650565b600062000bc08262000d2c565b62000bcc818562000d37565b935062000bde81856020860162000daf565b62000be98162000ea8565b840191505092915050565b62000bff8162000da5565b82525050565b6000608082019050818103600083015262000c21818762000bb3565b9050818103602083015262000c37818662000bb3565b905062000c48604083018562000bf4565b818103606083015262000c5c818462000bb3565b905095945050505050565b6000604051905081810181811067ffffffffffffffff8211171562000c915762000c9062000e79565b5b8060405250919050565b600067ffffffffffffffff82111562000cb95762000cb862000e79565b5b602082029050602081019050919050565b600067ffffffffffffffff82111562000ce85762000ce762000e79565b5b602082029050602081019050919050565b600067ffffffffffffffff82111562000d175762000d1662000e79565b5b601f19601f8301169050602081019050919050565b600081519050919050565b600082825260208201905092915050565b600062000d558262000da5565b915062000d628362000da5565b9250827fffffffffffffffffffffffffffffffffffffffffffffffffffffffffffffffff0382111562000d9a5762000d9962000e1b565b5b828201905092915050565b6000819050919050565b60005b8381101562000dcf57808201518184015260208101905062000db2565b8381111562000ddf576000848401525b50505050565b6000600282049050600182168062000dfe57607f821691505b6020821081141562000e155762000e1462000e4a565b5b50919050565b7f4e487b7100000000000000000000000000000000000000000000000000000000600052601160045260246000fd5b7f4e487b7100000000000000000000000000000000000000000000000000000000600052602260045260246000fd5b7f4e487b7100000000000000000000000000000000000000000000000000000000600052604160045260246000fd5b6000601f19601f8301169050919050565b62000ec48162000da5565b811462000ed057600080fd5b50565b6148ef8062000ee36000396000f3fe608060405234801561001057600080fd5b50600436106101425760003560e01c806398da4c95116100b8578063c87b56dd1161007c578063c87b56dd14610392578063c8cf27f4146103c2578063d4f24c5b146103e0578063e985e9c5146103ea578063f7a0a8241461041a578063f8b81ef71461044f57610142565b806398da4c95146102e5578063a22cb4651461031a578063a9c3267914610336578063b88d4fde14610358578063b953084e1461037457610142565b806323b872dd1161010a57806323b872dd146101ff57806342842e0e1461021b5780636352211e1461023757806370a08231146102675780637df124a11461029757806395d89b41146102c757610142565b806301ffc9a7146101475780630665f9611461017757806306fdde0314610195578063081812fc146101b3578063095ea7b3146101e3575b600080fd5b610161600480360381019061015c919061318f565b61046b565b60405161016e9190613ec9565b60405180910390f35b61017f61054d565b60405161018c9190614262565b60405180910390f35b61019d6106a9565b6040516101aa9190613ee4565b60405180910390f35b6101cd60048036038101906101c891906131e1565b61073b565b6040516101da9190613e09565b60405180910390f35b6101fd60048036038101906101f89190613153565b6107c0565b005b6102196004803603810190610214919061304d565b6108d8565b005b6102356004803603810190610230919061304d565b610938565b005b610251600480360381019061024c91906131e1565b610958565b60405161025e9190613e09565b60405180910390f35b610281600480360381019061027c9190612fe8565b610a0a565b60405161028e91906142a6565b60405180910390f35b6102b160048036038101906102ac9190612fe8565b610ac2565b6040516102be91906142a6565b60405180910390f35b6102cf610ada565b6040516102dc9190613ee4565b60405180910390f35b6102ff60048036038101906102fa91906131e1565b610b6c565b604051610311969594939291906142c1565b60405180910390f35b610334600480360381019061032f9190613117565b610cb8565b005b61033e610e39565b60405161034f959493929190613fb3565b60405180910390f35b610372600480360381019061036d919061309c565b610f6d565b005b61037c610fcf565b6040516103899190613ea7565b60405180910390f35b6103ac60048036038101906103a791906131e1565b61117a565b6040516103b99190613ee4565b60405180910390f35b6103ca611395565b6040516103d79190614284565b60405180910390f35b6103e861156d565b005b61040460048036038101906103ff9190613011565b6118d1565b6040516104119190613ec9565b60405180910390f35b610434600480360381019061042f91906131e1565b611965565b604051610446969594939291906142c1565b60405180910390f35b610469600480360381019061046491906131e1565b611ac1565b005b60007f80ac58cd000000000000000000000000000000000000000000000000000000007bffffffffffffffffffffffffffffffffffffffffffffffffffffffff1916827bffffffffffffffffffffffffffffffffffffffffffffffffffffffff1916148061053657507f5b5e139f000000000000000000000000000000000000000000000000000000007bffffffffffffffffffffffffffffffffffffffffffffffffffffffff1916827bffffffffffffffffffffffffffffffffffffffffffffffffffffffff1916145b80610546575061054582611f6d565b5b9050919050565b610555612e0f565b60096040518060a001604052908160008201805461057290614612565b80601f016020809104026020016040519081016040528092919081815260200182805461059e90614612565b80156105eb5780601f106105c0576101008083540402835291602001916105eb565b820191906000526020600020905b8154815290600101906020018083116105ce57829003601f168201915b5050505050815260200160018201805461060490614612565b80601f016020809104026020016040519081016040528092919081815260200182805461063090614612565b801561067d5780601f106106525761010080835404028352916020019161067d565b820191906000526020600020905b81548152906001019060200180831161066057829003601f168201915b505050505081526020016002820154815260200160038201548152602001600482015481525050905090565b6060600080546106b890614612565b80601f01602080910402602001604051908101604052809291908181526020018280546106e490614612565b80156107315780601f1061070657610100808354040283529160200191610731565b820191906000526020600020905b81548152906001019060200180831161071457829003601f168201915b5050505050905090565b600061074682611fd7565b610785576040517f08c379a000000000000000000000000000000000000000000000000000000000815260040161077c906141e2565b60405180910390fd5b6004600083815260200190815260200160002060009054906101000a900473ffffffffffffffffffffffffffffffffffffffff169050919050565b60006107cb82610958565b90508073ffffffffffffffffffffffffffffffffffffffff168373ffffffffffffffffffffffffffffffffffffffff16141561083c576040517f08c379a000000000000000000000000000000000000000000000000000000000815260040161083390614222565b60405180910390fd5b8073ffffffffffffffffffffffffffffffffffffffff1661085b612043565b73ffffffffffffffffffffffffffffffffffffffff16148061088a575061088981610884612043565b6118d1565b5b6108c9576040517f08c379a00000000000000000000000000000000000000000000000000000000081526004016108c090614142565b60405180910390fd5b6108d3838361204b565b505050565b6108e96108e3612043565b82612104565b610928576040517f08c379a000000000000000000000000000000000000000000000000000000000815260040161091f90614242565b60405180910390fd5b6109338383836121e2565b505050565b61095383838360405180602001604052806000815250610f6d565b505050565b6000806002600084815260200190815260200160002060009054906101000a900473ffffffffffffffffffffffffffffffffffffffff169050600073ffffffffffffffffffffffffffffffffffffffff168173ffffffffffffffffffffffffffffffffffffffff161415610a01576040517f08c379a00000000000000000000000000000000000000000000000000000000081526004016109f890614182565b60405180910390fd5b80915050919050565b60008073ffffffffffffffffffffffffffffffffffffffff168273ffffffffffffffffffffffffffffffffffffffff161415610a7b576040517f08c379a0000000000000000000000000000000000000000000000000000000008152600401610a7290614162565b60405180910390fd5b600360008373ffffffffffffffffffffffffffffffffffffffff1673ffffffffffffffffffffffffffffffffffffffff168152602001908152602001600020549050919050565b600e6020528060005260406000206000915090505481565b606060018054610ae990614612565b80601f0160208091040260200160405190810160405280929190818152602001828054610b1590614612565b8015610b625780601f10610b3757610100808354040283529160200191610b62565b820191906000526020600020905b815481529060010190602001808311610b4557829003601f168201915b5050505050905090565b6008602052806000526040600020600091509050806000015490806001018054610b9590614612565b80601f0160208091040260200160405190810160405280929190818152602001828054610bc190614612565b8015610c0e5780601f10610be357610100808354040283529160200191610c0e565b820191906000526020600020905b815481529060010190602001808311610bf157829003601f168201915b505050505090806002018054610c2390614612565b80601f0160208091040260200160405190810160405280929190818152602001828054610c4f90614612565b8015610c9c5780601f10610c7157610100808354040283529160200191610c9c565b820191906000526020600020905b815481529060010190602001808311610c7f57829003601f168201915b5050505050908060030154908060040154908060050154905086565b610cc0612043565b73ffffffffffffffffffffffffffffffffffffffff168273ffffffffffffffffffffffffffffffffffffffff161415610d2e576040517f08c379a0000000000000000000000000000000000000000000000000000000008152600401610d2590614102565b60405180910390fd5b8060056000610d3b612043565b73ffffffffffffffffffffffffffffffffffffffff1673ffffffffffffffffffffffffffffffffffffffff16815260200190815260200160002060008473ffffffffffffffffffffffffffffffffffffffff1673ffffffffffffffffffffffffffffffffffffffff16815260200190815260200160002060006101000a81548160ff0219169083151502179055508173ffffffffffffffffffffffffffffffffffffffff16610de8612043565b73ffffffffffffffffffffffffffffffffffffffff167f17307eab39ab6107e8899845ad3d59bd9653f200f220920489ca2b5937696c3183604051610e2d9190613ec9565b60405180910390a35050565b6009806000018054610e4a90614612565b80601f0160208091040260200160405190810160405280929190818152602001828054610e7690614612565b8015610ec35780601f10610e9857610100808354040283529160200191610ec3565b820191906000526020600020905b815481529060010190602001808311610ea657829003601f168201915b505050505090806001018054610ed890614612565b80601f0160208091040260200160405190810160405280929190818152602001828054610f0490614612565b8015610f515780601f10610f2657610100808354040283529160200191610f51565b820191906000526020600020905b815481529060010190602001808311610f3457829003601f168201915b5050505050908060020154908060030154908060040154905085565b610f7e610f78612043565b83612104565b610fbd576040517f08c379a0000000000000000000000000000000000000000000000000000000008152600401610fb490614242565b60405180910390fd5b610fc98484848461243e565b50505050565b60606007805480602002602001604051908101604052809291908181526020016000905b8282101561117157838290600052602060002090600602016040518060c00160405290816000820154815260200160018201805461103090614612565b80601f016020809104026020016040519081016040528092919081815260200182805461105c90614612565b80156110a95780601f1061107e576101008083540402835291602001916110a9565b820191906000526020600020905b81548152906001019060200180831161108c57829003601f168201915b505050505081526020016002820180546110c290614612565b80601f01602080910402602001604051908101604052809291908181526020018280546110ee90614612565b801561113b5780601f106111105761010080835404028352916020019161113b565b820191906000526020600020905b81548152906001019060200180831161111e57829003601f168201915b50505050508152602001600382015481526020016004820154815260200160058201548152505081526020019060010190610ff3565b50505050905090565b60606000600860008481526020019081526020016000206040518060c0016040529081600082015481526020016001820180546111b690614612565b80601f01602080910402602001604051908101604052809291908181526020018280546111e290614612565b801561122f5780601f106112045761010080835404028352916020019161122f565b820191906000526020600020905b81548152906001019060200180831161121257829003601f168201915b5050505050815260200160028201805461124890614612565b80601f016020809104026020016040519081016040528092919081815260200182805461127490614612565b80156112c15780601f10611296576101008083540402835291602001916112c1565b820191906000526020600020905b8154815290600101906020018083116112a457829003601f168201915b505050505081526020016003820154815260200160048201548152602001600582015481525050905060006112f9826060015161249a565b9050600061130a836080015161249a565b9050600061131b8460a0015161249a565b9050600061136185602001516113308961249a565b876040015187878760405160200161134d96959493929190613d42565b604051602081830303815290604052612647565b90506000816040516020016113769190613de7565b6040516020818303038152906040529050809650505050505050919050565b61139d612e3e565b6000600e60003373ffffffffffffffffffffffffffffffffffffffff1673ffffffffffffffffffffffffffffffffffffffff168152602001908152602001600020549050600081111561155c57600860008281526020019081526020016000206040518060c00160405290816000820154815260200160018201805461142290614612565b80601f016020809104026020016040519081016040528092919081815260200182805461144e90614612565b801561149b5780601f106114705761010080835404028352916020019161149b565b820191906000526020600020905b81548152906001019060200180831161147e57829003601f168201915b505050505081526020016002820180546114b490614612565b80601f01602080910402602001604051908101604052809291908181526020018280546114e090614612565b801561152d5780601f106115025761010080835404028352916020019161152d565b820191906000526020600020905b81548152906001019060200180831161151057829003601f168201915b50505050508152602001600382015481526020016004820154815260200160058201548152505091505061156a565b611564612e3e565b80925050505b90565b6000600e60003373ffffffffffffffffffffffffffffffffffffffff1673ffffffffffffffffffffffffffffffffffffffff16815260200190815260200160002054905060006008600083815260200190815260200160002090506116806040518060600160405280603c815260200161487e603c91398260010180546115f390614612565b80601f016020809104026020016040519081016040528092919081815260200182805461161f90614612565b801561166c5780601f106116415761010080835404028352916020019161166c565b820191906000526020600020905b81548152906001019060200180831161164f57829003601f168201915b505050505083600301548460050154612805565b6117586040518060400160405280601b81526020017f426f73732025732068617320257320485020616e642025732041440000000000815250600960000180546116c990614612565b80601f01602080910402602001604051908101604052809291908181526020018280546116f590614612565b80156117425780601f1061171757610100808354040283529160200191611742565b820191906000526020600020905b81548152906001019060200180831161172557829003601f168201915b5050505050600960020154600960040154612805565b600081600301541161179f576040517f08c379a0000000000000000000000000000000000000000000000000000000008152600401611796906141a2565b60405180910390fd5b6000600960020154116117e7576040517f08c379a00000000000000000000000000000000000000000000000000000000081526004016117de906140a2565b60405180910390fd5b80600501546009600201541015611808576000600960020181905550611827565b806005015460096002015461181d9190614528565b6009600201819055505b600960040154816003015410156118475760008160030181905550611865565b600960040154816003015461185c9190614528565b81600301819055505b61188b6040518060600160405280602881526020016148286028913982600301546128a7565b7f838ab28464562786a6c4ab2311964b82fa60bd9b14aa7e856af1f3f18d41a41460096002015482600301546040516118c5929190614330565b60405180910390a15050565b6000600560008473ffffffffffffffffffffffffffffffffffffffff1673ffffffffffffffffffffffffffffffffffffffff16815260200190815260200160002060008373ffffffffffffffffffffffffffffffffffffffff1673ffffffffffffffffffffffffffffffffffffffff16815260200190815260200160002060009054906101000a900460ff16905092915050565b6007818154811061197557600080fd5b906000526020600020906006020160009150905080600001549080600101805461199e90614612565b80601f01602080910402602001604051908101604052809291908181526020018280546119ca90614612565b8015611a175780601f106119ec57610100808354040283529160200191611a17565b820191906000526020600020905b8154815290600101906020018083116119fa57829003601f168201915b505050505090806002018054611a2c90614612565b80601f0160208091040260200160405190810160405280929190818152602001828054611a5890614612565b8015611aa55780601f10611a7a57610100808354040283529160200191611aa5565b820191906000526020600020905b815481529060010190602001808311611a8857829003601f168201915b5050505050908060030154908060040154908060050154905086565b6000611acd6006612943565b9050611ad93382612951565b6040518060c0016040528083815260200160078481548110611b24577f4e487b7100000000000000000000000000000000000000000000000000000000600052603260045260246000fd5b90600052602060002090600602016001018054611b4090614612565b80601f0160208091040260200160405190810160405280929190818152602001828054611b6c90614612565b8015611bb95780601f10611b8e57610100808354040283529160200191611bb9565b820191906000526020600020905b815481529060010190602001808311611b9c57829003601f168201915b5050505050815260200160078481548110611bfd577f4e487b7100000000000000000000000000000000000000000000000000000000600052603260045260246000fd5b90600052602060002090600602016002018054611c1990614612565b80601f0160208091040260200160405190810160405280929190818152602001828054611c4590614612565b8015611c925780601f10611c6757610100808354040283529160200191611c92565b820191906000526020600020905b815481529060010190602001808311611c7557829003601f168201915b5050505050815260200160078481548110611cd6577f4e487b7100000000000000000000000000000000000000000000000000000000600052603260045260246000fd5b906000526020600020906006020160030154815260200160078481548110611d27577f4e487b7100000000000000000000000000000000000000000000000000000000600052603260045260246000fd5b906000526020600020906006020160030154815260200160078481548110611d78577f4e487b7100000000000000000000000000000000000000000000000000000000600052603260045260246000fd5b90600052602060002090600602016005015481525060086000838152602001908152602001600020600082015181600001556020820151816001019080519060200190611dc6929190612e74565b506040820151816002019080519060200190611de3929190612e74565b50606082015181600301556080820151816004015560a08201518160050155905050611e286040518060600160405280602e8152602001614850602e9139828461296f565b80600e60003373ffffffffffffffffffffffffffffffffffffffff1673ffffffffffffffffffffffffffffffffffffffff16815260200190815260200160002081905550611e766006611f57565b7f4bc303fd457a97b4691b9af582ce71868a3d258638c8d4f8c60988a0f0bfb8cd338284604051611ea993929190613e70565b60405180910390a15050565b611f5184848484604051602401611ecf9493929190613f06565b6040516020818303038152906040527f8d142cdd000000000000000000000000000000000000000000000000000000007bffffffffffffffffffffffffffffffffffffffffffffffffffffffff19166020820180517bffffffffffffffffffffffffffffffffffffffffffffffffffffffff8381831617835250505050612a0e565b50505050565b6001816000016000828254019250508190555050565b60007f01ffc9a7000000000000000000000000000000000000000000000000000000007bffffffffffffffffffffffffffffffffffffffffffffffffffffffff1916827bffffffffffffffffffffffffffffffffffffffffffffffffffffffff1916149050919050565b60008073ffffffffffffffffffffffffffffffffffffffff166002600084815260200190815260200160002060009054906101000a900473ffffffffffffffffffffffffffffffffffffffff1673ffffffffffffffffffffffffffffffffffffffff1614159050919050565b600033905090565b816004600083815260200190815260200160002060006101000a81548173ffffffffffffffffffffffffffffffffffffffff021916908373ffffffffffffffffffffffffffffffffffffffff160217905550808273ffffffffffffffffffffffffffffffffffffffff166120be83610958565b73ffffffffffffffffffffffffffffffffffffffff167f8c5be1e5ebec7d5bd14f71427d1e84f3dd0314c0f7b2291e5b200ac8c7c3b92560405160405180910390a45050565b600061210f82611fd7565b61214e576040517f08c379a000000000000000000000000000000000000000000000000000000000815260040161214590614122565b60405180910390fd5b600061215983610958565b90508073ffffffffffffffffffffffffffffffffffffffff168473ffffffffffffffffffffffffffffffffffffffff1614806121c857508373ffffffffffffffffffffffffffffffffffffffff166121b08461073b565b73ffffffffffffffffffffffffffffffffffffffff16145b806121d957506121d881856118d1565b5b91505092915050565b8273ffffffffffffffffffffffffffffffffffffffff1661220282610958565b73ffffffffffffffffffffffffffffffffffffffff1614612258576040517f08c379a000000000000000000000000000000000000000000000000000000000815260040161224f90614202565b60405180910390fd5b600073ffffffffffffffffffffffffffffffffffffffff168273ffffffffffffffffffffffffffffffffffffffff1614156122c8576040517f08c379a00000000000000000000000000000000000000000000000000000000081526004016122bf906140e2565b60405180910390fd5b6122d3838383612a37565b6122de60008261204b565b6001600360008573ffffffffffffffffffffffffffffffffffffffff1673ffffffffffffffffffffffffffffffffffffffff168152602001908152602001600020600082825461232e9190614528565b925050819055506001600360008473ffffffffffffffffffffffffffffffffffffffff1673ffffffffffffffffffffffffffffffffffffffff16815260200190815260200160002060008282546123859190614447565b92505081905550816002600083815260200190815260200160002060006101000a81548173ffffffffffffffffffffffffffffffffffffffff021916908373ffffffffffffffffffffffffffffffffffffffff160217905550808273ffffffffffffffffffffffffffffffffffffffff168473ffffffffffffffffffffffffffffffffffffffff167fddf252ad1be2c89b69c2b068fc378daa952ba7f163c4a11628f55a4df523b3ef60405160405180910390a4505050565b6124498484846121e2565b61245584848484612a3c565b612494576040517f08c379a000000000000000000000000000000000000000000000000000000000815260040161248b90614082565b60405180910390fd5b50505050565b606060008214156124e2576040518060400160405280600181526020017f30000000000000000000000000000000000000000000000000000000000000008152509050612642565b600082905060005b600082146125145780806124fd90614644565b915050600a8261250d919061449d565b91506124ea565b60008167ffffffffffffffff811115612556577f4e487b7100000000000000000000000000000000000000000000000000000000600052604160045260246000fd5b6040519080825280601f01601f1916602001820160405280156125885781602001600182028036833780820191505090505b5090505b6000851461263b576001826125a19190614528565b9150600a856125b0919061468d565b60306125bc9190614447565b60f81b8183815181106125f8577f4e487b7100000000000000000000000000000000000000000000000000000000600052603260045260246000fd5b60200101907effffffffffffffffffffffffffffffffffffffffffffffffffffffffffffff1916908160001a905350600a85612634919061449d565b945061258c565b8093505050505b919050565b606060008251905060008114156126705760405180602001604052806000815250915050612800565b600060036002836126819190614447565b61268b919061449d565b600461269791906144ce565b905060006020826126a89190614447565b67ffffffffffffffff8111156126e7577f4e487b7100000000000000000000000000000000000000000000000000000000600052604160045260246000fd5b6040519080825280601f01601f1916602001820160405280156127195781602001600182028036833780820191505090505b50905060006040518060600160405280604081526020016147e8604091399050600181016020830160005b868110156127bd5760038101905062ffffff818a015116603f8160121c168401518060081b905060ff603f83600c1c1686015116810190508060081b905060ff603f8360061c1686015116810190508060081b905060ff603f831686015116810190508060e01b90508084526004840193505050612744565b5060038606600181146127d757600281146127e7576127f2565b613d3d60f01b60028303526127f2565b603d60f81b60018303525b508484525050819450505050505b919050565b6128a18484848460405160240161281f9493929190613f60565b6040516020818303038152906040527fd5cf17d0000000000000000000000000000000000000000000000000000000007bffffffffffffffffffffffffffffffffffffffffffffffffffffffff19166020820180517bffffffffffffffffffffffffffffffffffffffffffffffffffffffff8381831617835250505050612a0e565b50505050565b61293f82826040516024016128bd929190614014565b6040516020818303038152906040527f9710a9d0000000000000000000000000000000000000000000000000000000007bffffffffffffffffffffffffffffffffffffffffffffffffffffffff19166020820180517bffffffffffffffffffffffffffffffffffffffffffffffffffffffff8381831617835250505050612a0e565b5050565b600081600001549050919050565b61296b828260405180602001604052806000815250612bd3565b5050565b612a0983838360405160240161298793929190614044565b6040516020818303038152906040527f969cdd03000000000000000000000000000000000000000000000000000000007bffffffffffffffffffffffffffffffffffffffffffffffffffffffff19166020820180517bffffffffffffffffffffffffffffffffffffffffffffffffffffffff8381831617835250505050612a0e565b505050565b60008151905060006a636f6e736f6c652e6c6f679050602083016000808483855afa5050505050565b505050565b6000612a5d8473ffffffffffffffffffffffffffffffffffffffff16612c2e565b15612bc6578373ffffffffffffffffffffffffffffffffffffffff1663150b7a02612a86612043565b8786866040518563ffffffff1660e01b8152600401612aa89493929190613e24565b602060405180830381600087803b158015612ac257600080fd5b505af1925050508015612af357506040513d601f19601f82011682018060405250810190612af091906131b8565b60015b612b76573d8060008114612b23576040519150601f19603f3d011682016040523d82523d6000602084013e612b28565b606091505b50600081511415612b6e576040517f08c379a0000000000000000000000000000000000000000000000000000000008152600401612b6590614082565b60405180910390fd5b805181602001fd5b63150b7a0260e01b7bffffffffffffffffffffffffffffffffffffffffffffffffffffffff1916817bffffffffffffffffffffffffffffffffffffffffffffffffffffffff191614915050612bcb565b600190505b949350505050565b612bdd8383612c41565b612bea6000848484612a3c565b612c29576040517f08c379a0000000000000000000000000000000000000000000000000000000008152600401612c2090614082565b60405180910390fd5b505050565b600080823b905060008111915050919050565b600073ffffffffffffffffffffffffffffffffffffffff168273ffffffffffffffffffffffffffffffffffffffff161415612cb1576040517f08c379a0000000000000000000000000000000000000000000000000000000008152600401612ca8906141c2565b60405180910390fd5b612cba81611fd7565b15612cfa576040517f08c379a0000000000000000000000000000000000000000000000000000000008152600401612cf1906140c2565b60405180910390fd5b612d0660008383612a37565b6001600360008473ffffffffffffffffffffffffffffffffffffffff1673ffffffffffffffffffffffffffffffffffffffff1681526020019081526020016000206000828254612d569190614447565b92505081905550816002600083815260200190815260200160002060006101000a81548173ffffffffffffffffffffffffffffffffffffffff021916908373ffffffffffffffffffffffffffffffffffffffff160217905550808273ffffffffffffffffffffffffffffffffffffffff16600073ffffffffffffffffffffffffffffffffffffffff167fddf252ad1be2c89b69c2b068fc378daa952ba7f163c4a11628f55a4df523b3ef60405160405180910390a45050565b6040518060a0016040528060608152602001606081526020016000815260200160008152602001600081525090565b6040518060c001604052806000815260200160608152602001606081526020016000815260200160008152602001600081525090565b828054612e8090614612565b90600052602060002090601f016020900481019282612ea25760008555612ee9565b82601f10612ebb57805160ff1916838001178555612ee9565b82800160010185558215612ee9579182015b82811115612ee8578251825591602001919060010190612ecd565b5b509050612ef69190612efa565b5090565b5b80821115612f13576000816000905550600101612efb565b5090565b6000612f2a612f258461438a565b614359565b905082815260208101848484011115612f4257600080fd5b612f4d8482856145d0565b509392505050565b600081359050612f648161478b565b92915050565b600081359050612f79816147a2565b92915050565b600081359050612f8e816147b9565b92915050565b600081519050612fa3816147b9565b92915050565b600082601f830112612fba57600080fd5b8135612fca848260208601612f17565b91505092915050565b600081359050612fe2816147d0565b92915050565b600060208284031215612ffa57600080fd5b600061300884828501612f55565b91505092915050565b6000806040838503121561302457600080fd5b600061303285828601612f55565b925050602061304385828601612f55565b9150509250929050565b60008060006060848603121561306257600080fd5b600061307086828701612f55565b935050602061308186828701612f55565b925050604061309286828701612fd3565b9150509250925092565b600080600080608085870312156130b257600080fd5b60006130c087828801612f55565b94505060206130d187828801612f55565b93505060406130e287828801612fd3565b925050606085013567ffffffffffffffff8111156130ff57600080fd5b61310b87828801612fa9565b91505092959194509250565b6000806040838503121561312a57600080fd5b600061313885828601612f55565b925050602061314985828601612f6a565b9150509250929050565b6000806040838503121561316657600080fd5b600061317485828601612f55565b925050602061318585828601612fd3565b9150509250929050565b6000602082840312156131a157600080fd5b60006131af84828501612f7f565b91505092915050565b6000602082840312156131ca57600080fd5b60006131d884828501612f94565b91505092915050565b6000602082840312156131f357600080fd5b600061320184828501612fd3565b91505092915050565b60006132168383613c04565b905092915050565b6132278161455c565b82525050565b6000613238826143ca565b61324281856143f8565b935083602082028501613254856143ba565b8060005b858110156132905784840389528151613271858261320a565b945061327c836143eb565b925060208a01995050600181019050613258565b50829750879550505050505092915050565b6132ab8161456e565b82525050565b60006132bc826143d5565b6132c68185614409565b93506132d68185602086016145df565b6132df8161477a565b840191505092915050565b60006132f5826143e0565b6132ff818561441a565b935061330f8185602086016145df565b6133188161477a565b840191505092915050565b600061332e826143e0565b613338818561442b565b93506133488185602086016145df565b6133518161477a565b840191505092915050565b6000613367826143e0565b613371818561443c565b93506133818185602086016145df565b80840191505092915050565b600061339a600b8361443c565b91507f202d2d204e465420233a200000000000000000000000000000000000000000006000830152600b82019050919050565b60006133da60328361442b565b91507f4552433732313a207472616e7366657220746f206e6f6e20455243373231526560008301527f63656976657220696d706c656d656e74657200000000000000000000000000006020830152604082019050919050565b600061344060288361442b565b91507f4572726f723a20626f7373206d757374206861766520485020746f206174746160008301527f636b20626f73732e0000000000000000000000000000000000000000000000006020830152604082019050919050565b60006134a6601c8361442b565b91507f4552433732313a20746f6b656e20616c7265616479206d696e746564000000006000830152602082019050919050565b60006134e6600e8361443c565b91507f2c20226d61785f76616c7565223a0000000000000000000000000000000000006000830152600e82019050919050565b600061352660248361442b565b91507f4552433732313a207472616e7366657220746f20746865207a65726f2061646460008301527f72657373000000000000000000000000000000000000000000000000000000006020830152604082019050919050565b600061358c60198361442b565b91507f4552433732313a20617070726f766520746f2063616c6c6572000000000000006000830152602082019050919050565b60006135cc60408361443c565b91507f222c20226465736372697074696f6e223a202257656c636f6d6520746f20746860008301527f6520526564776f6f64204d6574617665727365222c2022696d616765223a20226020830152604082019050919050565b6000613632602c8361442b565b91507f4552433732313a206f70657261746f7220717565727920666f72206e6f6e657860008301527f697374656e7420746f6b656e00000000000000000000000000000000000000006020830152604082019050919050565b600061369860388361442b565b91507f4552433732313a20617070726f76652063616c6c6572206973206e6f74206f7760008301527f6e6572206e6f7220617070726f76656420666f7220616c6c00000000000000006020830152604082019050919050565b60006136fe602a8361442b565b91507f4552433732313a2062616c616e636520717565727920666f7220746865207a6560008301527f726f2061646472657373000000000000000000000000000000000000000000006020830152604082019050919050565b600061376460298361442b565b91507f4552433732313a206f776e657220717565727920666f72206e6f6e657869737460008301527f656e7420746f6b656e00000000000000000000000000000000000000000000006020830152604082019050919050565b60006137ca602d8361442b565b91507f4572726f723a20636861726163746572206d757374206861766520485020746f60008301527f2061747461636b20626f73732e000000000000000000000000000000000000006020830152604082019050919050565b600061383060048361443c565b91507f7d205d7d000000000000000000000000000000000000000000000000000000006000830152600482019050919050565b600061387060208361442b565b91507f4552433732313a206d696e7420746f20746865207a65726f20616464726573736000830152602082019050919050565b60006138b0602c8361442b565b91507f4552433732313a20617070726f76656420717565727920666f72206e6f6e657860008301527f697374656e7420746f6b656e00000000000000000000000000000000000000006020830152604082019050919050565b600061391660298361442b565b91507f4552433732313a207472616e73666572206f6620746f6b656e2074686174206960008301527f73206e6f74206f776e00000000000000000000000000000000000000000000006020830152604082019050919050565b600061397c600a8361443c565b91507f7b226e616d65223a2022000000000000000000000000000000000000000000006000830152600a82019050919050565b60006139bc60218361442b565b91507f4552433732313a20617070726f76616c20746f2063757272656e74206f776e6560008301527f72000000000000000000000000000000000000000000000000000000000000006020830152604082019050919050565b6000613a22601d8361443c565b91507f646174613a6170706c69636174696f6e2f6a736f6e3b6261736536342c0000006000830152601d82019050919050565b6000613a6260318361442b565b91507f4552433732313a207472616e736665722063616c6c6572206973206e6f74206f60008301527f776e6572206e6f7220617070726f7665640000000000000000000000000000006020830152604082019050919050565b6000613ac8603d8361443c565b91507f222c202261747472696275746573223a205b207b202274726169745f7479706560008301527f223a20224865616c746820506f696e7473222c202276616c7565223a200000006020830152603d82019050919050565b6000613b2e602d8361443c565b91507f7d2c207b202274726169745f74797065223a202241747461636b2044616d616760008301527f65222c202276616c7565223a20000000000000000000000000000000000000006020830152602d82019050919050565b600060a0830160008301518482036000860152613ba482826132ea565b91505060208301518482036020860152613bbe82826132ea565b9150506040830151613bd36040860182613d24565b506060830151613be66060860182613d24565b506080830151613bf96080860182613d24565b508091505092915050565b600060c083016000830151613c1c6000860182613d24565b5060208301518482036020860152613c3482826132ea565b91505060408301518482036040860152613c4e82826132ea565b9150506060830151613c636060860182613d24565b506080830151613c766080860182613d24565b5060a0830151613c8960a0860182613d24565b508091505092915050565b600060c083016000830151613cac6000860182613d24565b5060208301518482036020860152613cc482826132ea565b91505060408301518482036040860152613cde82826132ea565b9150506060830151613cf36060860182613d24565b506080830151613d066080860182613d24565b5060a0830151613d1960a0860182613d24565b508091505092915050565b613d2d816145c6565b82525050565b613d3c816145c6565b82525050565b6000613d4d8261396f565b9150613d59828961335c565b9150613d648261338d565b9150613d70828861335c565b9150613d7b826135bf565b9150613d87828761335c565b9150613d9282613abb565b9150613d9e828661335c565b9150613da9826134d9565b9150613db5828561335c565b9150613dc082613b21565b9150613dcc828461335c565b9150613dd782613823565b9150819050979650505050505050565b6000613df282613a15565b9150613dfe828461335c565b915081905092915050565b6000602082019050613e1e600083018461321e565b92915050565b6000608082019050613e39600083018761321e565b613e46602083018661321e565b613e536040830185613d33565b8181036060830152613e6581846132b1565b905095945050505050565b6000606082019050613e85600083018661321e565b613e926020830185613d33565b613e9f6040830184613d33565b949350505050565b60006020820190508181036000830152613ec1818461322d565b905092915050565b6000602082019050613ede60008301846132a2565b92915050565b60006020820190508181036000830152613efe8184613323565b905092915050565b60006080820190508181036000830152613f208187613323565b90508181036020830152613f348186613323565b9050613f436040830185613d33565b8181036060830152613f558184613323565b905095945050505050565b60006080820190508181036000830152613f7a8187613323565b90508181036020830152613f8e8186613323565b9050613f9d6040830185613d33565b613faa6060830184613d33565b95945050505050565b600060a0820190508181036000830152613fcd8188613323565b90508181036020830152613fe18187613323565b9050613ff06040830186613d33565b613ffd6060830185613d33565b61400a6080830184613d33565b9695505050505050565b6000604082019050818103600083015261402e8185613323565b905061403d6020830184613d33565b9392505050565b6000606082019050818103600083015261405e8186613323565b905061406d6020830185613d33565b61407a6040830184613d33565b949350505050565b6000602082019050818103600083015261409b816133cd565b9050919050565b600060208201905081810360008301526140bb81613433565b9050919050565b600060208201905081810360008301526140db81613499565b9050919050565b600060208201905081810360008301526140fb81613519565b9050919050565b6000602082019050818103600083015261411b8161357f565b9050919050565b6000602082019050818103600083015261413b81613625565b9050919050565b6000602082019050818103600083015261415b8161368b565b9050919050565b6000602082019050818103600083015261417b816136f1565b9050919050565b6000602082019050818103600083015261419b81613757565b9050919050565b600060208201905081810360008301526141bb816137bd565b9050919050565b600060208201905081810360008301526141db81613863565b9050919050565b600060208201905081810360008301526141fb816138a3565b9050919050565b6000602082019050818103600083015261421b81613909565b9050919050565b6000602082019050818103600083015261423b816139af565b9050919050565b6000602082019050818103600083015261425b81613a55565b9050919050565b6000602082019050818103600083015261427c8184613b87565b905092915050565b6000602082019050818103600083015261429e8184613c94565b905092915050565b60006020820190506142bb6000830184613d33565b92915050565b600060c0820190506142d66000830189613d33565b81810360208301526142e88188613323565b905081810360408301526142fc8187613323565b905061430b6060830186613d33565b6143186080830185613d33565b61432560a0830184613d33565b979650505050505050565b60006040820190506143456000830185613d33565b6143526020830184613d33565b9392505050565b6000604051905081810181811067ffffffffffffffff821117156143805761437f61474b565b5b8060405250919050565b600067ffffffffffffffff8211156143a5576143a461474b565b5b601f19601f8301169050602081019050919050565b6000819050602082019050919050565b600081519050919050565b600081519050919050565b600081519050919050565b6000602082019050919050565b600082825260208201905092915050565b600082825260208201905092915050565b600082825260208201905092915050565b600082825260208201905092915050565b600081905092915050565b6000614452826145c6565b915061445d836145c6565b9250827fffffffffffffffffffffffffffffffffffffffffffffffffffffffffffffffff03821115614492576144916146be565b5b828201905092915050565b60006144a8826145c6565b91506144b3836145c6565b9250826144c3576144c26146ed565b5b828204905092915050565b60006144d9826145c6565b91506144e4836145c6565b9250817fffffffffffffffffffffffffffffffffffffffffffffffffffffffffffffffff048311821515161561451d5761451c6146be565b5b828202905092915050565b6000614533826145c6565b915061453e836145c6565b925082821015614551576145506146be565b5b828203905092915050565b6000614567826145a6565b9050919050565b60008115159050919050565b60007fffffffff0000000000000000000000000000000000000000000000000000000082169050919050565b600073ffffffffffffffffffffffffffffffffffffffff82169050919050565b6000819050919050565b82818337600083830152505050565b60005b838110156145fd5780820151818401526020810190506145e2565b8381111561460c576000848401525b50505050565b6000600282049050600182168061462a57607f821691505b6020821081141561463e5761463d61471c565b5b50919050565b600061464f826145c6565b91507fffffffffffffffffffffffffffffffffffffffffffffffffffffffffffffffff821415614682576146816146be565b5b600182019050919050565b6000614698826145c6565b91506146a3836145c6565b9250826146b3576146b26146ed565b5b828206905092915050565b7f4e487b7100000000000000000000000000000000000000000000000000000000600052601160045260246000fd5b7f4e487b7100000000000000000000000000000000000000000000000000000000600052601260045260246000fd5b7f4e487b7100000000000000000000000000000000000000000000000000000000600052602260045260246000fd5b7f4e487b7100000000000000000000000000000000000000000000000000000000600052604160045260246000fd5b6000601f19601f8301169050919050565b6147948161455c565b811461479f57600080fd5b50565b6147ab8161456e565b81146147b657600080fd5b50565b6147c28161457a565b81146147cd57600080fd5b50565b6147d9816145c6565b81146147e457600080fd5b5056fe4142434445464748494a4b4c4d4e4f505152535455565758595a6162636465666768696a6b6c6d6e6f707172737475767778797a303132333435363738392b2f426f73732061747461636b656420706c617965722e204e657720706c617965722068703a2025730a4d696e746564204e465420772f20746f6b656e496420257320616e6420636861726163746572496e6465782025730a506c6179657220772f206368617261637465722025732061626f757420746f2061747461636b2e2048617320257320485020616e64202573204144a2646970667358221220f2ddc39831b4b3f0841ad04a2c452957b29a12ec438417ccba39cac5ebacffdc64736f6c63430008000033446f6e6520696e697469616c697a696e6720257320772f2048502025732c20696d67202573446f6e6520696e697469616c697a696e6720626f737320257320772f2048502025732c20696d67202573",
  "linkReferences": {},
  "deployedLinkReferences": {}
}