{
  "_format": "hh-sol-artifact-1",
  "contractName": "Redwar",
  "sourceName": "contracts/Redwar.sol",
  "abi": [
    {
      "inputs": [
        {
          "internalType": "string[]",
          "name": "characterNames",
          "type": "string[]"
        },
        {
          "internalType": "string[]",
          "name": "characterImageURIs",
          "type": "string[]"
        },
        {
          "internalType": "uint256[]",
          "name": "characterHp",
          "type": "uint256[]"
        },
        {
          "internalType": "uint256[]",
          "name": "characterAttackDmg",
          "type": "uint256[]"
        },
        {
          "internalType": "string",
          "name": "bossName",
          "type": "string"
        },
        {
          "internalType": "string",
          "name": "bossImageURI",
          "type": "string"
        },
        {
          "internalType": "uint256",
          "name": "bossHp",
          "type": "uint256"
        },
        {
          "internalType": "uint256",
          "name": "bossAttackDamage",
          "type": "uint256"
        },
        {
          "internalType": "uint256",
          "name": "maximumHonoraryTokenId",
          "type": "uint256"
        },
        {
          "internalType": "address",
          "name": "_developer",
          "type": "address"
        }
      ],
      "stateMutability": "nonpayable",
      "type": "constructor"
    },
    {
      "anonymous": false,
      "inputs": [
        {
          "indexed": true,
          "internalType": "address",
          "name": "owner",
          "type": "address"
        },
        {
          "indexed": true,
          "internalType": "address",
          "name": "approved",
          "type": "address"
        },
        {
          "indexed": true,
          "internalType": "uint256",
          "name": "tokenId",
          "type": "uint256"
        }
      ],
      "name": "Approval",
      "type": "event"
    },
    {
      "anonymous": false,
      "inputs": [
        {
          "indexed": true,
          "internalType": "address",
          "name": "owner",
          "type": "address"
        },
        {
          "indexed": true,
          "internalType": "address",
          "name": "operator",
          "type": "address"
        },
        {
          "indexed": false,
          "internalType": "bool",
          "name": "approved",
          "type": "bool"
        }
      ],
      "name": "ApprovalForAll",
      "type": "event"
    },
    {
      "anonymous": false,
      "inputs": [
        {
          "indexed": false,
          "internalType": "uint256",
          "name": "newBossHp",
          "type": "uint256"
        },
        {
          "indexed": false,
          "internalType": "uint256",
          "name": "newPlayerHp",
          "type": "uint256"
        }
      ],
      "name": "AttackComplete",
      "type": "event"
    },
    {
      "anonymous": false,
      "inputs": [
        {
          "indexed": true,
          "internalType": "uint256",
          "name": "level",
          "type": "uint256"
        },
        {
          "indexed": false,
          "internalType": "address",
          "name": "conqueror",
          "type": "address"
        },
        {
          "indexed": false,
          "internalType": "uint256",
          "name": "maxHp",
          "type": "uint256"
        },
        {
          "indexed": false,
          "internalType": "uint256",
          "name": "attackDamage",
          "type": "uint256"
        }
      ],
      "name": "BossUpgraded",
      "type": "event"
    },
    {
      "anonymous": false,
      "inputs": [
        {
          "indexed": true,
          "internalType": "uint256",
          "name": "tokenId",
          "type": "uint256"
        },
        {
          "indexed": false,
          "internalType": "address",
          "name": "owner",
          "type": "address"
        }
      ],
      "name": "CharacterDied",
      "type": "event"
    },
    {
      "anonymous": false,
      "inputs": [
        {
          "indexed": true,
          "internalType": "uint256",
          "name": "tokenId",
          "type": "uint256"
        },
        {
          "indexed": false,
          "internalType": "address",
          "name": "sender",
          "type": "address"
        },
        {
          "indexed": false,
          "internalType": "uint256",
          "name": "characterIndex",
          "type": "uint256"
        }
      ],
      "name": "CharacterNFTMinted",
      "type": "event"
    },
    {
      "anonymous": false,
      "inputs": [
        {
          "indexed": true,
          "internalType": "uint256",
          "name": "nextHonoraryToken",
          "type": "uint256"
        },
        {
          "indexed": false,
          "internalType": "address",
          "name": "owner",
          "type": "address"
        },
        {
          "indexed": false,
          "internalType": "uint256",
          "name": "_characterIndex",
          "type": "uint256"
        }
      ],
      "name": "HonoraryMint",
      "type": "event"
    },
    {
      "anonymous": false,
      "inputs": [
        {
          "indexed": true,
          "internalType": "address",
          "name": "from",
          "type": "address"
        },
        {
          "indexed": true,
          "internalType": "address",
          "name": "to",
          "type": "address"
        },
        {
          "indexed": true,
          "internalType": "uint256",
          "name": "tokenId",
          "type": "uint256"
        }
      ],
      "name": "Transfer",
      "type": "event"
    },
    {
      "inputs": [
        {
          "internalType": "address",
          "name": "to",
          "type": "address"
        },
        {
          "internalType": "uint256",
          "name": "tokenId",
          "type": "uint256"
        }
      ],
      "name": "approve",
      "outputs": [],
      "stateMutability": "nonpayable",
      "type": "function"
    },
    {
      "inputs": [],
      "name": "attackBoss",
      "outputs": [],
      "stateMutability": "nonpayable",
      "type": "function"
    },
    {
      "inputs": [
        {
          "internalType": "address",
          "name": "owner",
          "type": "address"
        }
      ],
      "name": "balanceOf",
      "outputs": [
        {
          "internalType": "uint256",
          "name": "",
          "type": "uint256"
        }
      ],
      "stateMutability": "view",
      "type": "function"
    },
    {
      "inputs": [],
      "name": "bigBoss",
      "outputs": [
        {
          "internalType": "string",
          "name": "name",
          "type": "string"
        },
        {
          "internalType": "string",
          "name": "imageURI",
          "type": "string"
        },
        {
          "internalType": "uint256",
          "name": "level",
          "type": "uint256"
        },
        {
          "internalType": "uint256",
          "name": "hp",
          "type": "uint256"
        },
        {
          "internalType": "uint256",
          "name": "maxHp",
          "type": "uint256"
        },
        {
          "internalType": "uint256",
          "name": "attackDamage",
          "type": "uint256"
        }
      ],
      "stateMutability": "view",
      "type": "function"
    },
    {
      "inputs": [],
      "name": "checkIfUserHasNFT",
      "outputs": [
        {
          "components": [
            {
              "internalType": "uint256",
              "name": "characterIndex",
              "type": "uint256"
            },
            {
              "internalType": "string",
              "name": "name",
              "type": "string"
            },
            {
              "internalType": "string",
              "name": "imageURI",
              "type": "string"
            },
            {
              "internalType": "uint256",
              "name": "hp",
              "type": "uint256"
            },
            {
              "internalType": "uint256",
              "name": "maxHp",
              "type": "uint256"
            },
            {
              "internalType": "uint256",
              "name": "attackDamage",
              "type": "uint256"
            }
          ],
          "internalType": "struct Redwar.CharacterAttributes",
          "name": "",
          "type": "tuple"
        }
      ],
      "stateMutability": "view",
      "type": "function"
    },
    {
      "inputs": [
        {
          "internalType": "uint256",
          "name": "",
          "type": "uint256"
        }
      ],
      "name": "defaultCharacters",
      "outputs": [
        {
          "internalType": "uint256",
          "name": "characterIndex",
          "type": "uint256"
        },
        {
          "internalType": "string",
          "name": "name",
          "type": "string"
        },
        {
          "internalType": "string",
          "name": "imageURI",
          "type": "string"
        },
        {
          "internalType": "uint256",
          "name": "hp",
          "type": "uint256"
        },
        {
          "internalType": "uint256",
          "name": "maxHp",
          "type": "uint256"
        },
        {
          "internalType": "uint256",
          "name": "attackDamage",
          "type": "uint256"
        }
      ],
      "stateMutability": "view",
      "type": "function"
    },
    {
      "inputs": [],
      "name": "developmentFee",
      "outputs": [
        {
          "internalType": "uint256",
          "name": "",
          "type": "uint256"
        }
      ],
      "stateMutability": "view",
      "type": "function"
    },
    {
      "inputs": [],
      "name": "getAllDefaultCharacters",
      "outputs": [
        {
          "components": [
            {
              "internalType": "uint256",
              "name": "characterIndex",
              "type": "uint256"
            },
            {
              "internalType": "string",
              "name": "name",
              "type": "string"
            },
            {
              "internalType": "string",
              "name": "imageURI",
              "type": "string"
            },
            {
              "internalType": "uint256",
              "name": "hp",
              "type": "uint256"
            },
            {
              "internalType": "uint256",
              "name": "maxHp",
              "type": "uint256"
            },
            {
              "internalType": "uint256",
              "name": "attackDamage",
              "type": "uint256"
            }
          ],
          "internalType": "struct Redwar.CharacterAttributes[]",
          "name": "",
          "type": "tuple[]"
        }
      ],
      "stateMutability": "view",
      "type": "function"
    },
    {
      "inputs": [
        {
          "internalType": "uint256",
          "name": "tokenId",
          "type": "uint256"
        }
      ],
      "name": "getApproved",
      "outputs": [
        {
          "internalType": "address",
          "name": "",
          "type": "address"
        }
      ],
      "stateMutability": "view",
      "type": "function"
    },
    {
      "inputs": [],
      "name": "getBigBoss",
      "outputs": [
        {
          "components": [
            {
              "internalType": "string",
              "name": "name",
              "type": "string"
            },
            {
              "internalType": "string",
              "name": "imageURI",
              "type": "string"
            },
            {
              "internalType": "uint256",
              "name": "level",
              "type": "uint256"
            },
            {
              "internalType": "uint256",
              "name": "hp",
              "type": "uint256"
            },
            {
              "internalType": "uint256",
              "name": "maxHp",
              "type": "uint256"
            },
            {
              "internalType": "uint256",
              "name": "attackDamage",
              "type": "uint256"
            }
          ],
          "internalType": "struct Redwar.BigBoss",
          "name": "",
          "type": "tuple"
        }
      ],
      "stateMutability": "view",
      "type": "function"
    },
    {
      "inputs": [],
      "name": "healBoss",
      "outputs": [],
      "stateMutability": "nonpayable",
      "type": "function"
    },
    {
      "inputs": [
        {
          "internalType": "address",
          "name": "owner",
          "type": "address"
        },
        {
          "internalType": "address",
          "name": "operator",
          "type": "address"
        }
      ],
      "name": "isApprovedForAll",
      "outputs": [
        {
          "internalType": "bool",
          "name": "",
          "type": "bool"
        }
      ],
      "stateMutability": "view",
      "type": "function"
    },
    {
      "inputs": [
        {
          "internalType": "uint256",
          "name": "_characterIndex",
          "type": "uint256"
        }
      ],
      "name": "mintCharacterNFT",
      "outputs": [],
      "stateMutability": "payable",
      "type": "function"
    },
    {
      "inputs": [],
      "name": "name",
      "outputs": [
        {
          "internalType": "string",
          "name": "",
          "type": "string"
        }
      ],
      "stateMutability": "view",
      "type": "function"
    },
    {
      "inputs": [
        {
          "internalType": "uint256",
          "name": "",
          "type": "uint256"
        }
      ],
      "name": "nftHolderAttributes",
      "outputs": [
        {
          "internalType": "uint256",
          "name": "characterIndex",
          "type": "uint256"
        },
        {
          "internalType": "string",
          "name": "name",
          "type": "string"
        },
        {
          "internalType": "string",
          "name": "imageURI",
          "type": "string"
        },
        {
          "internalType": "uint256",
          "name": "hp",
          "type": "uint256"
        },
        {
          "internalType": "uint256",
          "name": "maxHp",
          "type": "uint256"
        },
        {
          "internalType": "uint256",
          "name": "attackDamage",
          "type": "uint256"
        }
      ],
      "stateMutability": "view",
      "type": "function"
    },
    {
      "inputs": [
        {
          "internalType": "address",
          "name": "",
          "type": "address"
        }
      ],
      "name": "nftHolders",
      "outputs": [
        {
          "internalType": "uint256",
          "name": "",
          "type": "uint256"
        }
      ],
      "stateMutability": "view",
      "type": "function"
    },
    {
      "inputs": [
        {
          "internalType": "uint256",
          "name": "tokenId",
          "type": "uint256"
        }
      ],
      "name": "ownerOf",
      "outputs": [
        {
          "internalType": "address",
          "name": "",
          "type": "address"
        }
      ],
      "stateMutability": "view",
      "type": "function"
    },
    {
      "inputs": [],
      "name": "previousBossHealing",
      "outputs": [
        {
          "internalType": "uint256",
          "name": "",
          "type": "uint256"
        }
      ],
      "stateMutability": "view",
      "type": "function"
    },
    {
      "inputs": [],
      "name": "price",
      "outputs": [
        {
          "internalType": "uint256",
          "name": "",
          "type": "uint256"
        }
      ],
      "stateMutability": "view",
      "type": "function"
    },
    {
      "inputs": [
        {
          "internalType": "address",
          "name": "from",
          "type": "address"
        },
        {
          "internalType": "address",
          "name": "to",
          "type": "address"
        },
        {
          "internalType": "uint256",
          "name": "tokenId",
          "type": "uint256"
        }
      ],
      "name": "safeTransferFrom",
      "outputs": [],
      "stateMutability": "nonpayable",
      "type": "function"
    },
    {
      "inputs": [
        {
          "internalType": "address",
          "name": "from",
          "type": "address"
        },
        {
          "internalType": "address",
          "name": "to",
          "type": "address"
        },
        {
          "internalType": "uint256",
          "name": "tokenId",
          "type": "uint256"
        },
        {
          "internalType": "bytes",
          "name": "_data",
          "type": "bytes"
        }
      ],
      "name": "safeTransferFrom",
      "outputs": [],
      "stateMutability": "nonpayable",
      "type": "function"
    },
    {
      "inputs": [
        {
          "internalType": "address",
          "name": "operator",
          "type": "address"
        },
        {
          "internalType": "bool",
          "name": "approved",
          "type": "bool"
        }
      ],
      "name": "setApprovalForAll",
      "outputs": [],
      "stateMutability": "nonpayable",
      "type": "function"
    },
    {
      "inputs": [
        {
          "internalType": "bytes4",
          "name": "interfaceId",
          "type": "bytes4"
        }
      ],
      "name": "supportsInterface",
      "outputs": [
        {
          "internalType": "bool",
          "name": "",
          "type": "bool"
        }
      ],
      "stateMutability": "view",
      "type": "function"
    },
    {
      "inputs": [],
      "name": "symbol",
      "outputs": [
        {
          "internalType": "string",
          "name": "",
          "type": "string"
        }
      ],
      "stateMutability": "view",
      "type": "function"
    },
    {
      "inputs": [
        {
          "internalType": "uint256",
          "name": "_tokenId",
          "type": "uint256"
        }
      ],
      "name": "tokenURI",
      "outputs": [
        {
          "internalType": "string",
          "name": "",
          "type": "string"
        }
      ],
      "stateMutability": "view",
      "type": "function"
    },
    {
      "inputs": [
        {
          "internalType": "address",
          "name": "from",
          "type": "address"
        },
        {
          "internalType": "address",
          "name": "to",
          "type": "address"
        },
        {
          "internalType": "uint256",
          "name": "tokenId",
          "type": "uint256"
        }
      ],
      "name": "transferFrom",
      "outputs": [],
      "stateMutability": "nonpayable",
      "type": "function"
    }
  ],
  "bytecode": "0x6080604052663ff2e795f50000600b5566071afd498d0000600c553480156200002757600080fd5b50604051620058dd380380620058dd83398181016040528101906200004d9190620008a8565b6040518060400160405280600681526020017f52656477617200000000000000000000000000000000000000000000000000008152506040518060400160405280600481526020017f52574152000000000000000000000000000000000000000000000000000000008152508160009080519060200190620000d192919062000624565b508060019080519060200190620000ea92919062000624565b5050506040518060c001604052808781526020018681526020016000815260200185815260200185815260200184815250600f60008201518160000190805190602001906200013b92919062000624565b5060208201518160010190805190602001906200015a92919062000624565b5060408201518160020155606082015181600301556080820151816004015560a0820151816005015590505060005b8a518110156200056457600a6040518060c001604052808381526020018d8481518110620001e0577f4e487b7100000000000000000000000000000000000000000000000000000000600052603260045260246000fd5b602002602001015181526020018c848151811062000227577f4e487b7100000000000000000000000000000000000000000000000000000000600052603260045260246000fd5b602002602001015181526020018b84815181106200026e577f4e487b7100000000000000000000000000000000000000000000000000000000600052603260045260246000fd5b602002602001015181526020018b8481518110620002b5577f4e487b7100000000000000000000000000000000000000000000000000000000600052603260045260246000fd5b602002602001015181526020018a8481518110620002fc577f4e487b7100000000000000000000000000000000000000000000000000000000600052603260045260246000fd5b602002602001015181525090806001815401808255809150506001900390600052602060002090600602016000909190919091506000820151816000015560208201518160010190805190602001906200035892919062000624565b5060408201518160020190805190602001906200037792919062000624565b50606082015181600301556080820151816004015560a0820151816005015550506000600a8281548110620003d5577f4e487b7100000000000000000000000000000000000000000000000000000000600052603260045260246000fd5b90600052602060002090600602016040518060c0016040529081600082015481526020016001820180546200040a9062000bc4565b80601f0160208091040260200160405190810160405280929190818152602001828054620004389062000bc4565b8015620004895780601f106200045d5761010080835404028352916020019162000489565b820191906000526020600020905b8154815290600101906020018083116200046b57829003601f168201915b50505050508152602001600282018054620004a49062000bc4565b80601f0160208091040260200160405190810160405280929190818152602001828054620004d29062000bc4565b8015620005235780601f10620004f75761010080835404028352916020019162000523565b820191906000526020600020905b8154815290600101906020018083116200050557829003601f168201915b5050505050815260200160038201548152602001600482015481526020016005820154815250509050506001816200055c919062000af3565b905062000189565b5060005b8281116200059e576200058760066200060e60201b620025681760201c565b60018162000596919062000af3565b905062000568565b5081600981905550620005bd60086200060e60201b620025681760201c565b80600e60006101000a81548173ffffffffffffffffffffffffffffffffffffffff021916908373ffffffffffffffffffffffffffffffffffffffff1602179055505050505050505050505062000cbb565b6001816000016000828254019250508190555050565b828054620006329062000bc4565b90600052602060002090601f016020900481019282620006565760008555620006a2565b82601f106200067157805160ff1916838001178555620006a2565b82800160010185558215620006a2579182015b82811115620006a157825182559160200191906001019062000684565b5b509050620006b19190620006b5565b5090565b5b80821115620006d0576000816000905550600101620006b6565b5090565b6000620006eb620006e58462000a62565b62000a2e565b9050808382526020820190508260005b858110156200072f578151850162000714888262000864565b845260208401935060208301925050600181019050620006fb565b5050509392505050565b6000620007506200074a8462000a91565b62000a2e565b905080838252602082019050828560208602820111156200077057600080fd5b60005b85811015620007a4578162000789888262000891565b84526020840193506020830192505060018101905062000773565b5050509392505050565b6000620007c5620007bf8462000ac0565b62000a2e565b905082815260208101848484011115620007de57600080fd5b620007eb84828562000b8e565b509392505050565b600081519050620008048162000c87565b92915050565b600082601f8301126200081c57600080fd5b81516200082e848260208601620006d4565b91505092915050565b600082601f8301126200084957600080fd5b81516200085b84826020860162000739565b91505092915050565b600082601f8301126200087657600080fd5b815162000888848260208601620007ae565b91505092915050565b600081519050620008a28162000ca1565b92915050565b6000806000806000806000806000806101408b8d031215620008c957600080fd5b60008b015167ffffffffffffffff811115620008e457600080fd5b620008f28d828e016200080a565b9a505060208b015167ffffffffffffffff8111156200091057600080fd5b6200091e8d828e016200080a565b99505060408b015167ffffffffffffffff8111156200093c57600080fd5b6200094a8d828e0162000837565b98505060608b015167ffffffffffffffff8111156200096857600080fd5b620009768d828e0162000837565b97505060808b015167ffffffffffffffff8111156200099457600080fd5b620009a28d828e0162000864565b96505060a08b015167ffffffffffffffff811115620009c057600080fd5b620009ce8d828e0162000864565b95505060c0620009e18d828e0162000891565b94505060e0620009f48d828e0162000891565b93505061010062000a088d828e0162000891565b92505061012062000a1c8d828e01620007f3565b9150509295989b9194979a5092959850565b6000604051905081810181811067ffffffffffffffff8211171562000a585762000a5762000c58565b5b8060405250919050565b600067ffffffffffffffff82111562000a805762000a7f62000c58565b5b602082029050602081019050919050565b600067ffffffffffffffff82111562000aaf5762000aae62000c58565b5b602082029050602081019050919050565b600067ffffffffffffffff82111562000ade5762000add62000c58565b5b601f19601f8301169050602081019050919050565b600062000b008262000b84565b915062000b0d8362000b84565b9250827fffffffffffffffffffffffffffffffffffffffffffffffffffffffffffffffff0382111562000b455762000b4462000bfa565b5b828201905092915050565b600062000b5d8262000b64565b9050919050565b600073ffffffffffffffffffffffffffffffffffffffff82169050919050565b6000819050919050565b60005b8381101562000bae57808201518184015260208101905062000b91565b8381111562000bbe576000848401525b50505050565b6000600282049050600182168062000bdd57607f821691505b6020821081141562000bf45762000bf362000c29565b5b50919050565b7f4e487b7100000000000000000000000000000000000000000000000000000000600052601160045260246000fd5b7f4e487b7100000000000000000000000000000000000000000000000000000000600052602260045260246000fd5b7f4e487b7100000000000000000000000000000000000000000000000000000000600052604160045260246000fd5b62000c928162000b50565b811462000c9e57600080fd5b50565b62000cac8162000b84565b811462000cb857600080fd5b50565b614c128062000ccb6000396000f3fe6080604052600436106101815760003560e01c8063a22cb465116100d1578063b953084e1161008a578063d4f24c5b11610064578063d4f24c5b146105a2578063e985e9c5146105b9578063f7a0a824146105f6578063f8b81ef71461063857610181565b8063b953084e1461050f578063c87b56dd1461053a578063c8cf27f41461057757610181565b8063a22cb46514610420578063a4e902d314610449578063a5f3d00314610460578063a8b7df691461048b578063a9c32679146104b6578063b88d4fde146104e657610181565b806342842e0e1161013e5780637df124a1116101185780637df124a11461034b57806395d89b411461038857806398da4c95146103b3578063a035b1fe146103f557610181565b806342842e0e146102a85780636352211e146102d157806370a082311461030e57610181565b806301ffc9a7146101865780630665f961146101c357806306fdde03146101ee578063081812fc14610219578063095ea7b31461025657806323b872dd1461027f575b600080fd5b34801561019257600080fd5b506101ad60048036038101906101a891906135a1565b610654565b6040516101ba9190614360565b60405180910390f35b3480156101cf57600080fd5b506101d8610736565b6040516101e5919061460c565b60405180910390f35b3480156101fa57600080fd5b5061020361089c565b604051610210919061437b565b60405180910390f35b34801561022557600080fd5b50610240600480360381019061023b91906135f3565b61092e565b60405161024d9190614277565b60405180910390f35b34801561026257600080fd5b5061027d60048036038101906102789190613565565b6109b3565b005b34801561028b57600080fd5b506102a660048036038101906102a1919061345f565b610acb565b005b3480156102b457600080fd5b506102cf60048036038101906102ca919061345f565b610b2b565b005b3480156102dd57600080fd5b506102f860048036038101906102f391906135f3565b610b4b565b6040516103059190614277565b60405180910390f35b34801561031a57600080fd5b50610335600480360381019061033091906133fa565b610bfd565b6040516103429190614650565b60405180910390f35b34801561035757600080fd5b50610372600480360381019061036d91906133fa565b610cb5565b60405161037f9190614650565b60405180910390f35b34801561039457600080fd5b5061039d610ccd565b6040516103aa919061437b565b60405180910390f35b3480156103bf57600080fd5b506103da60048036038101906103d591906135f3565b610d5f565b6040516103ec9695949392919061466b565b60405180910390f35b34801561040157600080fd5b5061040a610eab565b6040516104179190614650565b60405180910390f35b34801561042c57600080fd5b5061044760048036038101906104429190613529565b610eb1565b005b34801561045557600080fd5b5061045e611032565b005b34801561046c57600080fd5b5061047561108d565b6040516104829190614650565b60405180910390f35b34801561049757600080fd5b506104a0611093565b6040516104ad9190614650565b60405180910390f35b3480156104c257600080fd5b506104cb611099565b6040516104dd9695949392919061439d565b60405180910390f35b3480156104f257600080fd5b5061050d600480360381019061050891906134ae565b6111d3565b005b34801561051b57600080fd5b50610524611235565b604051610531919061433e565b60405180910390f35b34801561054657600080fd5b50610561600480360381019061055c91906135f3565b6113e0565b60405161056e919061437b565b60405180910390f35b34801561058357600080fd5b5061058c6115fb565b604051610599919061462e565b60405180910390f35b3480156105ae57600080fd5b506105b76117d3565b005b3480156105c557600080fd5b506105e060048036038101906105db9190613423565b611e7a565b6040516105ed9190614360565b60405180910390f35b34801561060257600080fd5b5061061d600480360381019061061891906135f3565b611f0e565b60405161062f9695949392919061466b565b60405180910390f35b610652600480360381019061064d91906135f3565b61206a565b005b60007f80ac58cd000000000000000000000000000000000000000000000000000000007bffffffffffffffffffffffffffffffffffffffffffffffffffffffff1916827bffffffffffffffffffffffffffffffffffffffffffffffffffffffff1916148061071f57507f5b5e139f000000000000000000000000000000000000000000000000000000007bffffffffffffffffffffffffffffffffffffffffffffffffffffffff1916827bffffffffffffffffffffffffffffffffffffffffffffffffffffffff1916145b8061072f575061072e8261257e565b5b9050919050565b61073e61321a565b600f6040518060c001604052908160008201805461075b906149c7565b80601f0160208091040260200160405190810160405280929190818152602001828054610787906149c7565b80156107d45780601f106107a9576101008083540402835291602001916107d4565b820191906000526020600020905b8154815290600101906020018083116107b757829003601f168201915b505050505081526020016001820180546107ed906149c7565b80601f0160208091040260200160405190810160405280929190818152602001828054610819906149c7565b80156108665780601f1061083b57610100808354040283529160200191610866565b820191906000526020600020905b81548152906001019060200180831161084957829003601f168201915b50505050508152602001600282015481526020016003820154815260200160048201548152602001600582015481525050905090565b6060600080546108ab906149c7565b80601f01602080910402602001604051908101604052809291908181526020018280546108d7906149c7565b80156109245780601f106108f957610100808354040283529160200191610924565b820191906000526020600020905b81548152906001019060200180831161090757829003601f168201915b5050505050905090565b6000610939826125e8565b610978576040517f08c379a000000000000000000000000000000000000000000000000000000000815260040161096f9061458c565b60405180910390fd5b6004600083815260200190815260200160002060009054906101000a900473ffffffffffffffffffffffffffffffffffffffff169050919050565b60006109be82610b4b565b90508073ffffffffffffffffffffffffffffffffffffffff168373ffffffffffffffffffffffffffffffffffffffff161415610a2f576040517f08c379a0000000000000000000000000000000000000000000000000000000008152600401610a26906145cc565b60405180910390fd5b8073ffffffffffffffffffffffffffffffffffffffff16610a4e612654565b73ffffffffffffffffffffffffffffffffffffffff161480610a7d5750610a7c81610a77612654565b611e7a565b5b610abc576040517f08c379a0000000000000000000000000000000000000000000000000000000008152600401610ab3906144ec565b60405180910390fd5b610ac6838361265c565b505050565b610adc610ad6612654565b82612715565b610b1b576040517f08c379a0000000000000000000000000000000000000000000000000000000008152600401610b12906145ec565b60405180910390fd5b610b268383836127f3565b505050565b610b46838383604051806020016040528060008152506111d3565b505050565b6000806002600084815260200190815260200160002060009054906101000a900473ffffffffffffffffffffffffffffffffffffffff169050600073ffffffffffffffffffffffffffffffffffffffff168173ffffffffffffffffffffffffffffffffffffffff161415610bf4576040517f08c379a0000000000000000000000000000000000000000000000000000000008152600401610beb9061454c565b60405180910390fd5b80915050919050565b60008073ffffffffffffffffffffffffffffffffffffffff168273ffffffffffffffffffffffffffffffffffffffff161415610c6e576040517f08c379a0000000000000000000000000000000000000000000000000000000008152600401610c659061452c565b60405180910390fd5b600360008373ffffffffffffffffffffffffffffffffffffffff1673ffffffffffffffffffffffffffffffffffffffff168152602001908152602001600020549050919050565b60156020528060005260406000206000915090505481565b606060018054610cdc906149c7565b80601f0160208091040260200160405190810160405280929190818152602001828054610d08906149c7565b8015610d555780601f10610d2a57610100808354040283529160200191610d55565b820191906000526020600020905b815481529060010190602001808311610d3857829003601f168201915b5050505050905090565b600d602052806000526040600020600091509050806000015490806001018054610d88906149c7565b80601f0160208091040260200160405190810160405280929190818152602001828054610db4906149c7565b8015610e015780601f10610dd657610100808354040283529160200191610e01565b820191906000526020600020905b815481529060010190602001808311610de457829003601f168201915b505050505090806002018054610e16906149c7565b80601f0160208091040260200160405190810160405280929190818152602001828054610e42906149c7565b8015610e8f5780601f10610e6457610100808354040283529160200191610e8f565b820191906000526020600020905b815481529060010190602001808311610e7257829003601f168201915b5050505050908060030154908060040154908060050154905086565b600b5481565b610eb9612654565b73ffffffffffffffffffffffffffffffffffffffff168273ffffffffffffffffffffffffffffffffffffffff161415610f27576040517f08c379a0000000000000000000000000000000000000000000000000000000008152600401610f1e9061448c565b60405180910390fd5b8060056000610f34612654565b73ffffffffffffffffffffffffffffffffffffffff1673ffffffffffffffffffffffffffffffffffffffff16815260200190815260200160002060008473ffffffffffffffffffffffffffffffffffffffff1673ffffffffffffffffffffffffffffffffffffffff16815260200190815260200160002060006101000a81548160ff0219169083151502179055508173ffffffffffffffffffffffffffffffffffffffff16610fe1612654565b73ffffffffffffffffffffffffffffffffffffffff167f17307eab39ab6107e8899845ad3d59bd9653f200f220920489ca2b5937696c31836040516110269190614360565b60405180910390a35050565b61a8c06007544261104391906148dd565b111561108b57600f60040154600a600f6003015461106191906147fc565b101561108a57600a600f6003015461107991906147fc565b600f60030181905550426007819055505b5b565b600c5481565b60075481565b600f8060000180546110aa906149c7565b80601f01602080910402602001604051908101604052809291908181526020018280546110d6906149c7565b80156111235780601f106110f857610100808354040283529160200191611123565b820191906000526020600020905b81548152906001019060200180831161110657829003601f168201915b505050505090806001018054611138906149c7565b80601f0160208091040260200160405190810160405280929190818152602001828054611164906149c7565b80156111b15780601f10611186576101008083540402835291602001916111b1565b820191906000526020600020905b81548152906001019060200180831161119457829003601f168201915b5050505050908060020154908060030154908060040154908060050154905086565b6111e46111de612654565b83612715565b611223576040517f08c379a000000000000000000000000000000000000000000000000000000000815260040161121a906145ec565b60405180910390fd5b61122f84848484612a4f565b50505050565b6060600a805480602002602001604051908101604052809291908181526020016000905b828210156113d757838290600052602060002090600602016040518060c001604052908160008201548152602001600182018054611296906149c7565b80601f01602080910402602001604051908101604052809291908181526020018280546112c2906149c7565b801561130f5780601f106112e45761010080835404028352916020019161130f565b820191906000526020600020905b8154815290600101906020018083116112f257829003601f168201915b50505050508152602001600282018054611328906149c7565b80601f0160208091040260200160405190810160405280929190818152602001828054611354906149c7565b80156113a15780601f10611376576101008083540402835291602001916113a1565b820191906000526020600020905b81548152906001019060200180831161138457829003601f168201915b50505050508152602001600382015481526020016004820154815260200160058201548152505081526020019060010190611259565b50505050905090565b60606000600d60008481526020019081526020016000206040518060c00160405290816000820154815260200160018201805461141c906149c7565b80601f0160208091040260200160405190810160405280929190818152602001828054611448906149c7565b80156114955780601f1061146a57610100808354040283529160200191611495565b820191906000526020600020905b81548152906001019060200180831161147857829003601f168201915b505050505081526020016002820180546114ae906149c7565b80601f01602080910402602001604051908101604052809291908181526020018280546114da906149c7565b80156115275780601f106114fc57610100808354040283529160200191611527565b820191906000526020600020905b81548152906001019060200180831161150a57829003601f168201915b5050505050815260200160038201548152602001600482015481526020016005820154815250509050600061155f8260600151612aab565b905060006115708360800151612aab565b905060006115818460a00151612aab565b905060006115c7856020015161159689612aab565b87604001518787876040516020016115b39695949392919061419b565b604051602081830303815290604052612c58565b90506000816040516020016115dc9190614240565b6040516020818303038152906040529050809650505050505050919050565b611603613250565b6000601560003373ffffffffffffffffffffffffffffffffffffffff1673ffffffffffffffffffffffffffffffffffffffff16815260200190815260200160002054905060008111156117c257600d60008281526020019081526020016000206040518060c001604052908160008201548152602001600182018054611688906149c7565b80601f01602080910402602001604051908101604052809291908181526020018280546116b4906149c7565b80156117015780601f106116d657610100808354040283529160200191611701565b820191906000526020600020905b8154815290600101906020018083116116e457829003601f168201915b5050505050815260200160028201805461171a906149c7565b80601f0160208091040260200160405190810160405280929190818152602001828054611746906149c7565b80156117935780601f1061176857610100808354040283529160200191611793565b820191906000526020600020905b81548152906001019060200180831161177657829003601f168201915b5050505050815260200160038201548152602001600482015481526020016005820154815250509150506117d0565b6117ca613250565b80925050505b90565b6117db611032565b6000601560003373ffffffffffffffffffffffffffffffffffffffff1673ffffffffffffffffffffffffffffffffffffffff1681526020019081526020016000205490506000600d60008381526020019081526020016000209050600081600301541161187d576040517f08c379a0000000000000000000000000000000000000000000000000000000008152600401611874906144cc565b60405180910390fd5b8060050154600f6003015410156119b2576000600f600301819055506001600f600201546118ab91906147fc565b600f600201819055506002600f600401546118c69190614883565b600f60040181905550600f60040154600f600301819055506005600f600501546118f091906147fc565b600f60050181905550600f600201547f7de82c056b329d9a7ad1f4a03b6eeb2a57b419335c9a5fd6052f6d9d44e31a0933600f60040154600f6005015460405161193c93929190614307565b60405180910390a23373ffffffffffffffffffffffffffffffffffffffff164760405161196890614262565b60006040518083038185875af1925050503d80600081146119a5576040519150601f19603f3d011682016040523d82523d6000602084013e6119aa565b606091505b5050506119d1565b8060050154600f600301546119c791906148dd565b600f600301819055505b600f6005015481600301541015611e165760008160030181905550817fe8166db35ae051afb708b1e1348a2dc1007488b062205cefe79a2fd508f0983c33604051611a1c9190614277565b60405180910390a26000611a306008612e16565b90506009548111611e1057611a453382612e24565b6000600a8054905082611a589190614a42565b90506040518060c00160405280828152602001600a8381548110611aa5577f4e487b7100000000000000000000000000000000000000000000000000000000600052603260045260246000fd5b90600052602060002090600602016001018054611ac1906149c7565b80601f0160208091040260200160405190810160405280929190818152602001828054611aed906149c7565b8015611b3a5780601f10611b0f57610100808354040283529160200191611b3a565b820191906000526020600020905b815481529060010190602001808311611b1d57829003601f168201915b50505050508152602001600a8381548110611b7e577f4e487b7100000000000000000000000000000000000000000000000000000000600052603260045260246000fd5b90600052602060002090600602016002018054611b9a906149c7565b80601f0160208091040260200160405190810160405280929190818152602001828054611bc6906149c7565b8015611c135780601f10611be857610100808354040283529160200191611c13565b820191906000526020600020905b815481529060010190602001808311611bf657829003601f168201915b50505050508152602001600a8381548110611c57577f4e487b7100000000000000000000000000000000000000000000000000000000600052603260045260246000fd5b9060005260206000209060060201600301548152602001600a8381548110611ca8577f4e487b7100000000000000000000000000000000000000000000000000000000600052603260045260246000fd5b9060005260206000209060060201600301548152602001600a8381548110611cf9577f4e487b7100000000000000000000000000000000000000000000000000000000600052603260045260246000fd5b906000526020600020906006020160050154815250600d6000848152602001908152602001600020600082015181600001556020820151816001019080519060200190611d47929190613286565b506040820151816002019080519060200190611d64929190613286565b50606082015181600301556080820151816004015560a0820151816005015590505081601560003373ffffffffffffffffffffffffffffffffffffffff1673ffffffffffffffffffffffffffffffffffffffff16815260200190815260200160002081905550611dd46008612568565b817f0b205b46d3faa354e1d682cc033df92b642147dc1d94c8b533518b3ba867e5443383604051611e069291906142de565b60405180910390a2505b50611e34565b600f600501548160030154611e2b91906148dd565b81600301819055505b7f838ab28464562786a6c4ab2311964b82fa60bd9b14aa7e856af1f3f18d41a414600f600301548260030154604051611e6e9291906146da565b60405180910390a15050565b6000600560008473ffffffffffffffffffffffffffffffffffffffff1673ffffffffffffffffffffffffffffffffffffffff16815260200190815260200160002060008373ffffffffffffffffffffffffffffffffffffffff1673ffffffffffffffffffffffffffffffffffffffff16815260200190815260200160002060009054906101000a900460ff16905092915050565b600a8181548110611f1e57600080fd5b9060005260206000209060060201600091509050806000015490806001018054611f47906149c7565b80601f0160208091040260200160405190810160405280929190818152602001828054611f73906149c7565b8015611fc05780601f10611f9557610100808354040283529160200191611fc0565b820191906000526020600020905b815481529060010190602001808311611fa357829003601f168201915b505050505090806002018054611fd5906149c7565b80601f0160208091040260200160405190810160405280929190818152602001828054612001906149c7565b801561204e5780601f106120235761010080835404028352916020019161204e565b820191906000526020600020905b81548152906001019060200180831161203157829003601f168201915b5050505050908060030154908060040154908060050154905086565b612072611032565b600c54600b5461208291906147fc565b3410156120c4576040517f08c379a00000000000000000000000000000000000000000000000000000000081526004016120bb9061444c565b60405180910390fd5b600a80549050811061210b576040517f08c379a00000000000000000000000000000000000000000000000000000000081526004016121029061450c565b60405180910390fd5b60006121176006612e16565b90506121233382612e24565b600e60009054906101000a900473ffffffffffffffffffffffffffffffffffffffff1673ffffffffffffffffffffffffffffffffffffffff16600c5460405161216b90614262565b60006040518083038185875af1925050503d80600081146121a8576040519150601f19603f3d011682016040523d82523d6000602084013e6121ad565b606091505b5050506040518060c00160405280838152602001600a84815481106121fb577f4e487b7100000000000000000000000000000000000000000000000000000000600052603260045260246000fd5b90600052602060002090600602016001018054612217906149c7565b80601f0160208091040260200160405190810160405280929190818152602001828054612243906149c7565b80156122905780601f1061226557610100808354040283529160200191612290565b820191906000526020600020905b81548152906001019060200180831161227357829003601f168201915b50505050508152602001600a84815481106122d4577f4e487b7100000000000000000000000000000000000000000000000000000000600052603260045260246000fd5b906000526020600020906006020160020180546122f0906149c7565b80601f016020809104026020016040519081016040528092919081815260200182805461231c906149c7565b80156123695780601f1061233e57610100808354040283529160200191612369565b820191906000526020600020905b81548152906001019060200180831161234c57829003601f168201915b50505050508152602001600a84815481106123ad577f4e487b7100000000000000000000000000000000000000000000000000000000600052603260045260246000fd5b9060005260206000209060060201600301548152602001600a84815481106123fe577f4e487b7100000000000000000000000000000000000000000000000000000000600052603260045260246000fd5b9060005260206000209060060201600301548152602001600a848154811061244f577f4e487b7100000000000000000000000000000000000000000000000000000000600052603260045260246000fd5b906000526020600020906006020160050154815250600d600083815260200190815260200160002060008201518160000155602082015181600101908051906020019061249d929190613286565b5060408201518160020190805190602001906124ba929190613286565b50606082015181600301556080820151816004015560a0820151816005015590505080601560003373ffffffffffffffffffffffffffffffffffffffff1673ffffffffffffffffffffffffffffffffffffffff1681526020019081526020016000208190555061252a6006612568565b807f5cf4e1898a2a74267f22fda48336e93f895b4f5f70ee41d84a98decea47057c7338460405161255c9291906142de565b60405180910390a25050565b6001816000016000828254019250508190555050565b60007f01ffc9a7000000000000000000000000000000000000000000000000000000007bffffffffffffffffffffffffffffffffffffffffffffffffffffffff1916827bffffffffffffffffffffffffffffffffffffffffffffffffffffffff1916149050919050565b60008073ffffffffffffffffffffffffffffffffffffffff166002600084815260200190815260200160002060009054906101000a900473ffffffffffffffffffffffffffffffffffffffff1673ffffffffffffffffffffffffffffffffffffffff1614159050919050565b600033905090565b816004600083815260200190815260200160002060006101000a81548173ffffffffffffffffffffffffffffffffffffffff021916908373ffffffffffffffffffffffffffffffffffffffff160217905550808273ffffffffffffffffffffffffffffffffffffffff166126cf83610b4b565b73ffffffffffffffffffffffffffffffffffffffff167f8c5be1e5ebec7d5bd14f71427d1e84f3dd0314c0f7b2291e5b200ac8c7c3b92560405160405180910390a45050565b6000612720826125e8565b61275f576040517f08c379a0000000000000000000000000000000000000000000000000000000008152600401612756906144ac565b60405180910390fd5b600061276a83610b4b565b90508073ffffffffffffffffffffffffffffffffffffffff168473ffffffffffffffffffffffffffffffffffffffff1614806127d957508373ffffffffffffffffffffffffffffffffffffffff166127c18461092e565b73ffffffffffffffffffffffffffffffffffffffff16145b806127ea57506127e98185611e7a565b5b91505092915050565b8273ffffffffffffffffffffffffffffffffffffffff1661281382610b4b565b73ffffffffffffffffffffffffffffffffffffffff1614612869576040517f08c379a0000000000000000000000000000000000000000000000000000000008152600401612860906145ac565b60405180910390fd5b600073ffffffffffffffffffffffffffffffffffffffff168273ffffffffffffffffffffffffffffffffffffffff1614156128d9576040517f08c379a00000000000000000000000000000000000000000000000000000000081526004016128d09061446c565b60405180910390fd5b6128e4838383612e42565b6128ef60008261265c565b6001600360008573ffffffffffffffffffffffffffffffffffffffff1673ffffffffffffffffffffffffffffffffffffffff168152602001908152602001600020600082825461293f91906148dd565b925050819055506001600360008473ffffffffffffffffffffffffffffffffffffffff1673ffffffffffffffffffffffffffffffffffffffff168152602001908152602001600020600082825461299691906147fc565b92505081905550816002600083815260200190815260200160002060006101000a81548173ffffffffffffffffffffffffffffffffffffffff021916908373ffffffffffffffffffffffffffffffffffffffff160217905550808273ffffffffffffffffffffffffffffffffffffffff168473ffffffffffffffffffffffffffffffffffffffff167fddf252ad1be2c89b69c2b068fc378daa952ba7f163c4a11628f55a4df523b3ef60405160405180910390a4505050565b612a5a8484846127f3565b612a6684848484612e47565b612aa5576040517f08c379a0000000000000000000000000000000000000000000000000000000008152600401612a9c9061440c565b60405180910390fd5b50505050565b60606000821415612af3576040518060400160405280600181526020017f30000000000000000000000000000000000000000000000000000000000000008152509050612c53565b600082905060005b60008214612b25578080612b0e906149f9565b915050600a82612b1e9190614852565b9150612afb565b60008167ffffffffffffffff811115612b67577f4e487b7100000000000000000000000000000000000000000000000000000000600052604160045260246000fd5b6040519080825280601f01601f191660200182016040528015612b995781602001600182028036833780820191505090505b5090505b60008514612c4c57600182612bb291906148dd565b9150600a85612bc19190614a42565b6030612bcd91906147fc565b60f81b818381518110612c09577f4e487b7100000000000000000000000000000000000000000000000000000000600052603260045260246000fd5b60200101907effffffffffffffffffffffffffffffffffffffffffffffffffffffffffffff1916908160001a905350600a85612c459190614852565b9450612b9d565b8093505050505b919050565b60606000825190506000811415612c815760405180602001604052806000815250915050612e11565b60006003600283612c9291906147fc565b612c9c9190614852565b6004612ca89190614883565b90506000602082612cb991906147fc565b67ffffffffffffffff811115612cf8577f4e487b7100000000000000000000000000000000000000000000000000000000600052604160045260246000fd5b6040519080825280601f01601f191660200182016040528015612d2a5781602001600182028036833780820191505090505b5090506000604051806060016040528060408152602001614b9d604091399050600181016020830160005b86811015612dce5760038101905062ffffff818a015116603f8160121c168401518060081b905060ff603f83600c1c1686015116810190508060081b905060ff603f8360061c1686015116810190508060081b905060ff603f831686015116810190508060e01b90508084526004840193505050612d55565b506003860660018114612de85760028114612df857612e03565b613d3d60f01b6002830352612e03565b603d60f81b60018303525b508484525050819450505050505b919050565b600081600001549050919050565b612e3e828260405180602001604052806000815250612fde565b5050565b505050565b6000612e688473ffffffffffffffffffffffffffffffffffffffff16613039565b15612fd1578373ffffffffffffffffffffffffffffffffffffffff1663150b7a02612e91612654565b8786866040518563ffffffff1660e01b8152600401612eb39493929190614292565b602060405180830381600087803b158015612ecd57600080fd5b505af1925050508015612efe57506040513d601f19601f82011682018060405250810190612efb91906135ca565b60015b612f81573d8060008114612f2e576040519150601f19603f3d011682016040523d82523d6000602084013e612f33565b606091505b50600081511415612f79576040517f08c379a0000000000000000000000000000000000000000000000000000000008152600401612f709061440c565b60405180910390fd5b805181602001fd5b63150b7a0260e01b7bffffffffffffffffffffffffffffffffffffffffffffffffffffffff1916817bffffffffffffffffffffffffffffffffffffffffffffffffffffffff191614915050612fd6565b600190505b949350505050565b612fe8838361304c565b612ff56000848484612e47565b613034576040517f08c379a000000000000000000000000000000000000000000000000000000000815260040161302b9061440c565b60405180910390fd5b505050565b600080823b905060008111915050919050565b600073ffffffffffffffffffffffffffffffffffffffff168273ffffffffffffffffffffffffffffffffffffffff1614156130bc576040517f08c379a00000000000000000000000000000000000000000000000000000000081526004016130b39061456c565b60405180910390fd5b6130c5816125e8565b15613105576040517f08c379a00000000000000000000000000000000000000000000000000000000081526004016130fc9061442c565b60405180910390fd5b61311160008383612e42565b6001600360008473ffffffffffffffffffffffffffffffffffffffff1673ffffffffffffffffffffffffffffffffffffffff168152602001908152602001600020600082825461316191906147fc565b92505081905550816002600083815260200190815260200160002060006101000a81548173ffffffffffffffffffffffffffffffffffffffff021916908373ffffffffffffffffffffffffffffffffffffffff160217905550808273ffffffffffffffffffffffffffffffffffffffff16600073ffffffffffffffffffffffffffffffffffffffff167fddf252ad1be2c89b69c2b068fc378daa952ba7f163c4a11628f55a4df523b3ef60405160405180910390a45050565b6040518060c001604052806060815260200160608152602001600081526020016000815260200160008152602001600081525090565b6040518060c001604052806000815260200160608152602001606081526020016000815260200160008152602001600081525090565b828054613292906149c7565b90600052602060002090601f0160209004810192826132b457600085556132fb565b82601f106132cd57805160ff19168380011785556132fb565b828001600101855582156132fb579182015b828111156132fa5782518255916020019190600101906132df565b5b509050613308919061330c565b5090565b5b8082111561332557600081600090555060010161330d565b5090565b600061333c61333784614734565b614703565b90508281526020810184848401111561335457600080fd5b61335f848285614985565b509392505050565b60008135905061337681614b40565b92915050565b60008135905061338b81614b57565b92915050565b6000813590506133a081614b6e565b92915050565b6000815190506133b581614b6e565b92915050565b600082601f8301126133cc57600080fd5b81356133dc848260208601613329565b91505092915050565b6000813590506133f481614b85565b92915050565b60006020828403121561340c57600080fd5b600061341a84828501613367565b91505092915050565b6000806040838503121561343657600080fd5b600061344485828601613367565b925050602061345585828601613367565b9150509250929050565b60008060006060848603121561347457600080fd5b600061348286828701613367565b935050602061349386828701613367565b92505060406134a4868287016133e5565b9150509250925092565b600080600080608085870312156134c457600080fd5b60006134d287828801613367565b94505060206134e387828801613367565b93505060406134f4878288016133e5565b925050606085013567ffffffffffffffff81111561351157600080fd5b61351d878288016133bb565b91505092959194509250565b6000806040838503121561353c57600080fd5b600061354a85828601613367565b925050602061355b8582860161337c565b9150509250929050565b6000806040838503121561357857600080fd5b600061358685828601613367565b9250506020613597858286016133e5565b9150509250929050565b6000602082840312156135b357600080fd5b60006135c184828501613391565b91505092915050565b6000602082840312156135dc57600080fd5b60006135ea848285016133a6565b91505092915050565b60006020828403121561360557600080fd5b6000613613848285016133e5565b91505092915050565b6000613628838361405d565b905092915050565b61363981614911565b82525050565b600061364a82614774565b61365481856147a2565b93508360208202850161366685614764565b8060005b858110156136a25784840389528151613683858261361c565b945061368e83614795565b925060208a0199505060018101905061366a565b50829750879550505050505092915050565b6136bd81614923565b82525050565b60006136ce8261477f565b6136d881856147b3565b93506136e8818560208601614994565b6136f181614b2f565b840191505092915050565b60006137078261478a565b61371181856147cf565b9350613721818560208601614994565b61372a81614b2f565b840191505092915050565b60006137408261478a565b61374a81856147e0565b935061375a818560208601614994565b61376381614b2f565b840191505092915050565b60006137798261478a565b61378381856147f1565b9350613793818560208601614994565b80840191505092915050565b60006137ac600b836147f1565b91507f202d2d204e465420233a200000000000000000000000000000000000000000006000830152600b82019050919050565b60006137ec6032836147e0565b91507f4552433732313a207472616e7366657220746f206e6f6e20455243373231526560008301527f63656976657220696d706c656d656e74657200000000000000000000000000006020830152604082019050919050565b6000613852601c836147e0565b91507f4552433732313a20746f6b656e20616c7265616479206d696e746564000000006000830152602082019050919050565b6000613892600e836147f1565b91507f2c20226d61785f76616c7565223a0000000000000000000000000000000000006000830152600e82019050919050565b60006138d2600d836147e0565b91507f50524943455f4e4f545f4d4554000000000000000000000000000000000000006000830152602082019050919050565b60006139126024836147e0565b91507f4552433732313a207472616e7366657220746f20746865207a65726f2061646460008301527f72657373000000000000000000000000000000000000000000000000000000006020830152604082019050919050565b60006139786019836147e0565b91507f4552433732313a20617070726f766520746f2063616c6c6572000000000000006000830152602082019050919050565b60006139b8602c836147e0565b91507f4552433732313a206f70657261746f7220717565727920666f72206e6f6e657860008301527f697374656e7420746f6b656e00000000000000000000000000000000000000006020830152604082019050919050565b6000613a1e6017836147e0565b91507f4348415241435445525f4841535f4e4f5f4845414c54480000000000000000006000830152602082019050919050565b6000613a5e6038836147e0565b91507f4552433732313a20617070726f76652063616c6c6572206973206e6f74206f7760008301527f6e6572206e6f7220617070726f76656420666f7220616c6c00000000000000006020830152604082019050919050565b6000613ac46016836147e0565b91507f4348415241435445525f4e4f4e5f4558495354414e54000000000000000000006000830152602082019050919050565b6000613b04602a836147e0565b91507f4552433732313a2062616c616e636520717565727920666f7220746865207a6560008301527f726f2061646472657373000000000000000000000000000000000000000000006020830152604082019050919050565b6000613b6a6029836147e0565b91507f4552433732313a206f776e657220717565727920666f72206e6f6e657869737460008301527f656e7420746f6b656e00000000000000000000000000000000000000000000006020830152604082019050919050565b6000613bd06047836147f1565b91507f222c20226465736372697074696f6e223a202257656c636f6d6520746f20746860008301527f6520526564776f6f64204d6574617665727365222c2022696d616765223a202260208301527f697066733a2f2f000000000000000000000000000000000000000000000000006040830152604782019050919050565b6000613c5c6004836147f1565b91507f7d205d7d000000000000000000000000000000000000000000000000000000006000830152600482019050919050565b6000613c9c6020836147e0565b91507f4552433732313a206d696e7420746f20746865207a65726f20616464726573736000830152602082019050919050565b6000613cdc602c836147e0565b91507f4552433732313a20617070726f76656420717565727920666f72206e6f6e657860008301527f697374656e7420746f6b656e00000000000000000000000000000000000000006020830152604082019050919050565b6000613d426029836147e0565b91507f4552433732313a207472616e73666572206f6620746f6b656e2074686174206960008301527f73206e6f74206f776e00000000000000000000000000000000000000000000006020830152604082019050919050565b6000613da8600a836147f1565b91507f7b226e616d65223a2022000000000000000000000000000000000000000000006000830152600a82019050919050565b6000613de86021836147e0565b91507f4552433732313a20617070726f76616c20746f2063757272656e74206f776e6560008301527f72000000000000000000000000000000000000000000000000000000000000006020830152604082019050919050565b6000613e4e601d836147f1565b91507f646174613a6170706c69636174696f6e2f6a736f6e3b6261736536342c0000006000830152601d82019050919050565b6000613e8e6000836147c4565b9150600082019050919050565b6000613ea86031836147e0565b91507f4552433732313a207472616e736665722063616c6c6572206973206e6f74206f60008301527f776e6572206e6f7220617070726f7665640000000000000000000000000000006020830152604082019050919050565b6000613f0e603d836147f1565b91507f222c202261747472696275746573223a205b207b202274726169745f7479706560008301527f223a20224865616c746820506f696e7473222c202276616c7565223a200000006020830152603d82019050919050565b6000613f74602d836147f1565b91507f7d2c207b202274726169745f74797065223a202241747461636b2044616d616760008301527f65222c202276616c7565223a20000000000000000000000000000000000000006020830152602d82019050919050565b600060c0830160008301518482036000860152613fea82826136fc565b9150506020830151848203602086015261400482826136fc565b9150506040830151614019604086018261417d565b50606083015161402c606086018261417d565b50608083015161403f608086018261417d565b5060a083015161405260a086018261417d565b508091505092915050565b600060c083016000830151614075600086018261417d565b506020830151848203602086015261408d82826136fc565b915050604083015184820360408601526140a782826136fc565b91505060608301516140bc606086018261417d565b5060808301516140cf608086018261417d565b5060a08301516140e260a086018261417d565b508091505092915050565b600060c083016000830151614105600086018261417d565b506020830151848203602086015261411d82826136fc565b9150506040830151848203604086015261413782826136fc565b915050606083015161414c606086018261417d565b50608083015161415f608086018261417d565b5060a083015161417260a086018261417d565b508091505092915050565b6141868161497b565b82525050565b6141958161497b565b82525050565b60006141a682613d9b565b91506141b2828961376e565b91506141bd8261379f565b91506141c9828861376e565b91506141d482613bc3565b91506141e0828761376e565b91506141eb82613f01565b91506141f7828661376e565b915061420282613885565b915061420e828561376e565b915061421982613f67565b9150614225828461376e565b915061423082613c4f565b9150819050979650505050505050565b600061424b82613e41565b9150614257828461376e565b915081905092915050565b600061426d82613e81565b9150819050919050565b600060208201905061428c6000830184613630565b92915050565b60006080820190506142a76000830187613630565b6142b46020830186613630565b6142c1604083018561418c565b81810360608301526142d381846136c3565b905095945050505050565b60006040820190506142f36000830185613630565b614300602083018461418c565b9392505050565b600060608201905061431c6000830186613630565b614329602083018561418c565b614336604083018461418c565b949350505050565b60006020820190508181036000830152614358818461363f565b905092915050565b600060208201905061437560008301846136b4565b92915050565b600060208201905081810360008301526143958184613735565b905092915050565b600060c08201905081810360008301526143b78189613735565b905081810360208301526143cb8188613735565b90506143da604083018761418c565b6143e7606083018661418c565b6143f4608083018561418c565b61440160a083018461418c565b979650505050505050565b60006020820190508181036000830152614425816137df565b9050919050565b6000602082019050818103600083015261444581613845565b9050919050565b60006020820190508181036000830152614465816138c5565b9050919050565b6000602082019050818103600083015261448581613905565b9050919050565b600060208201905081810360008301526144a58161396b565b9050919050565b600060208201905081810360008301526144c5816139ab565b9050919050565b600060208201905081810360008301526144e581613a11565b9050919050565b6000602082019050818103600083015261450581613a51565b9050919050565b6000602082019050818103600083015261452581613ab7565b9050919050565b6000602082019050818103600083015261454581613af7565b9050919050565b6000602082019050818103600083015261456581613b5d565b9050919050565b6000602082019050818103600083015261458581613c8f565b9050919050565b600060208201905081810360008301526145a581613ccf565b9050919050565b600060208201905081810360008301526145c581613d35565b9050919050565b600060208201905081810360008301526145e581613ddb565b9050919050565b6000602082019050818103600083015261460581613e9b565b9050919050565b600060208201905081810360008301526146268184613fcd565b905092915050565b6000602082019050818103600083015261464881846140ed565b905092915050565b6000602082019050614665600083018461418c565b92915050565b600060c082019050614680600083018961418c565b81810360208301526146928188613735565b905081810360408301526146a68187613735565b90506146b5606083018661418c565b6146c2608083018561418c565b6146cf60a083018461418c565b979650505050505050565b60006040820190506146ef600083018561418c565b6146fc602083018461418c565b9392505050565b6000604051905081810181811067ffffffffffffffff8211171561472a57614729614b00565b5b8060405250919050565b600067ffffffffffffffff82111561474f5761474e614b00565b5b601f19601f8301169050602081019050919050565b6000819050602082019050919050565b600081519050919050565b600081519050919050565b600081519050919050565b6000602082019050919050565b600082825260208201905092915050565b600082825260208201905092915050565b600081905092915050565b600082825260208201905092915050565b600082825260208201905092915050565b600081905092915050565b60006148078261497b565b91506148128361497b565b9250827fffffffffffffffffffffffffffffffffffffffffffffffffffffffffffffffff0382111561484757614846614a73565b5b828201905092915050565b600061485d8261497b565b91506148688361497b565b92508261487857614877614aa2565b5b828204905092915050565b600061488e8261497b565b91506148998361497b565b9250817fffffffffffffffffffffffffffffffffffffffffffffffffffffffffffffffff04831182151516156148d2576148d1614a73565b5b828202905092915050565b60006148e88261497b565b91506148f38361497b565b92508282101561490657614905614a73565b5b828203905092915050565b600061491c8261495b565b9050919050565b60008115159050919050565b60007fffffffff0000000000000000000000000000000000000000000000000000000082169050919050565b600073ffffffffffffffffffffffffffffffffffffffff82169050919050565b6000819050919050565b82818337600083830152505050565b60005b838110156149b2578082015181840152602081019050614997565b838111156149c1576000848401525b50505050565b600060028204905060018216806149df57607f821691505b602082108114156149f3576149f2614ad1565b5b50919050565b6000614a048261497b565b91507fffffffffffffffffffffffffffffffffffffffffffffffffffffffffffffffff821415614a3757614a36614a73565b5b600182019050919050565b6000614a4d8261497b565b9150614a588361497b565b925082614a6857614a67614aa2565b5b828206905092915050565b7f4e487b7100000000000000000000000000000000000000000000000000000000600052601160045260246000fd5b7f4e487b7100000000000000000000000000000000000000000000000000000000600052601260045260246000fd5b7f4e487b7100000000000000000000000000000000000000000000000000000000600052602260045260246000fd5b7f4e487b7100000000000000000000000000000000000000000000000000000000600052604160045260246000fd5b6000601f19601f8301169050919050565b614b4981614911565b8114614b5457600080fd5b50565b614b6081614923565b8114614b6b57600080fd5b50565b614b778161492f565b8114614b8257600080fd5b50565b614b8e8161497b565b8114614b9957600080fd5b5056fe4142434445464748494a4b4c4d4e4f505152535455565758595a6162636465666768696a6b6c6d6e6f707172737475767778797a303132333435363738392b2fa2646970667358221220fef1e57e6740bddf33c23a03fb3364fa6ed8f5ce00e8805d2a62b7da977f107564736f6c63430008000033",
  "linkReferences": {},
  "deployedLinkReferences": {}
}